:020000040800F2
:10000000901D002079020008F57000087D6D000841
:10001000F17000085D6C0008157600080000000013
:1000200000000000000000000000000075720008E1
:10003000616C0008000000007D71000889730008F1
:10004000930200089302000893020008930200083C
:10005000930200089302000893020008930200082C
:10006000930200089302000893020008930200081C
:10007000930200089302000893020008930200080C
:1000800093020008930200089302000893020008FC
:1000900093020008930200089302000893020008EC
:1000A00093020008930200089302000893020008DC
:1000B00093020008930200089302000893020008CC
:1000C00093020008930200089302000893020008BC
:1000D00093020008ED7300089302000893020008E1
:1000E000930200089302000893020008930200089C
:1000F000930200089302000893020008930200088C
:10010000930200089302000893020008930200087B
:10011000930200089302000893020008930200086B
:10012000930200089302000893020008930200085B
:1001300000F002F800F090F80AA090E8000C824469
:100140008344AAF10107DA4501D100F085F8AFF246
:10015000090EBAE80F0013F0010F18BFFB1A43F0A5
:1001600001031847480A0100680A0100103A24BF39
:1001700078C878C1FAD8520724BF30C830C144BF0C
:1001800004680C607047000000230024002500264E
:10019000103A28BF78C1FBD8520728BF30C148BFEA
:1001A0000B6070476E2905F02083702905F00380ED
:1001B00066290FF0A68365290FF0A38367290FF046
:1001C000A08361290FF09F8303681B0A28BF41F0B9
:1001D0008001692904F07487642904F07187752906
:1001E00004F06E876F2905F01086782904F0CF8718
:1001F000E92905F0AB85E42905F0A885F52905F086
:10020000A585EF2905F00D86F82904F0CE8703684F
:10021000DB0928BF41F08001632906F023807329A0
:1002200006F02880E32906F03380F32906F03880B1
:10023000002070471FB505F0FFFD040000200021DD
:100240000EF046F8401C6060002000210EF02AF8F5
:10025000E0601FBD10B510BD06F0C0F81146FFF7F5
:10026000E9FF0CF09DF806F0E7F803B4FFF7F2FFA2
:1002700003BC07F028FF00000948804709480047F1
:10028000FEE7FEE7FEE7FEE7FEE7FEE7FEE7FEE746
:10029000FEE7FEE704480549054A064B70470000A3
:1002A0008D7300083101000890170020901D002078
:1002B0009019002090190020FE49C1F8E80070470D
:1002C0002DE9F04FDFF8ECB30026044685B0174661
:1002D00098468A463546B146DBF8AC000EF0BFFAC8
:1002E0003A4643460EF0E6FA7ED3DBF8B0000EF055
:1002F000B6FA3A4643460EF017FCF5D3B4F90000BF
:10030000B4F90610401A0EF0AAFA3A4643460EF027
:10031000D1FA00D20126B4F90E00B4F91410401A33
:100320000EF09DFA3A4643460EF0C4FA00D2761C0F
:10033000B4F91C00B4F92210401A0EF090FA3A46B3
:1003400043460EF0B7FA00D2761CDB4B012E4BDC95
:100350000022384641460EF0E9FA07460E46B4F947
:100360000000B4F90610401A0EF079FA3A46334606
:100370000EF0DAFB00D20125B4F90E00B4F9141026
:10038000401A0EF06CFA3A4633460EF0CDFB00D21E
:100390006D1C31463E460F46B4F91C00B4F92210DC
:1003A000401A0EF05CFA32463B460EF0BDFB00D21E
:1003B0006D1C002D03DD022005B0BDE8F08F002686
:1003C00006EB460004EB80050390B5F90A000EF039
:1003D00046FADAE9047843463A460EF0CDFC834605
:1003E0000091B5F9040000E053E00EF038FA4346FE
:1003F0003A460EF0C1FC5A46009B0EF097FA83462F
:100400000291B5F908000EF02AFADAE902784346BB
:100410003A460EF0B1FCCDE90001B5F902000EF04C
:100420001EFA43463A460EF0A7FCDDE900230EF023
:100430007DFA80460491B5F906000EF010FADAE96B
:1004400000572A463B460EF097FCCDE90001039881
:1004500034F920000EF003FA2A463B460EF08CFCDD
:10046000DDE900230EF062FA4246049B0DF078FFAE
:100470005A46029B0DF074FF002213460EF01AFA42
:1004800001D209F10109761C032E99DBB9F1020FA3
:1004900001DA012090E700208EE788490A684B685E
:1004A000D00180EAD20080EA031048608B685203D2
:1004B00080EAC30382EA5312520282EAD0208B60A0
:1004C0000860704770B50546FFF7E7FF0EF058FF6C
:1004D0007B490EF09DFF6FF01F0631460FF075FA55
:1004E00008F066FB0446FFF7D8FF0EF049FF3146DF
:1004F0000FF06BFA10F0FF4F01D14FF07E500EF06D
:1005000025FD0BF09FFD00224FF040430EF00EFA48
:100510000DF0F4FE0DF064FD29460EF079FF214642
:10052000BDE870400EF074BF2DE9FE4F05469046C1
:100530000E4618460EF00AFDCDE90010D6E930232C
:100540000EF0F4F904460F4640460EF0FFFC02910F
:10055000F5E9302383460EF0E9F922463B460DF0DB
:10056000FFFE65E830010024DDE90010074606EBD8
:10057000C40082460CC838460EF0D8F905EBC40713
:100580008046D7E900238946584602990EF0CEF9F5
:1005900042464B460DF0E4FEC7E90001DDE90010DC
:1005A000DAE924230EF0C2F9D7E9242380468946EC
:1005B000584602990EF0BAF942464B460DF0D0FE6D
:1005C000641CC7E92401062CCEDB0024DDE9001001
:1005D000074606EBC400D0E9122338460EF0A6F910
:1005E00005EBC4020746D2E912C388469146584635
:1005F000029962460EF09AF93A4643460DF0B0FE73
:10060000641CC9E91201092CE0DB0024DDE90010BB
:10061000074606EBC400D0E90C2338460EF086F9F5
:1006200005EBC4020746D2E90CC3884691465846FA
:10063000029962460EF07AF93A4643460DF090FE72
:10064000641CC9E90C01032CE0DBBDE8FE8F2DE939
:10065000F04F044691B00F4608680EF000F9CDE95E
:100660000E0105460E4678680EF0F9F881468A4676
:10067000B8680EF0F4F883468846D4E930015F4646
:100680000022104B0DF06CFEC4E93001D4E90C01DE
:100690002A4633460DF064FEC4E90C01D4E90E018C
:1006A0004A4653460DF05CFEC4E90E0143463A4605
:1006B0000AE00000100A002000000440F0000020C2
:1006C000DB0FC9400000F03FD4E910010DF048FEF7
:1006D000C4E910012A463346284631460EF026F971
:1006E000CDE90501D4E900230DF03AFEC4E900018B
:1006F0004A465346284631460EF018F9CDE9000126
:10070000D4E902230DF02CFEC4E9020143463A4627
:10071000284631460EF00AF9CDE90301D4E9042355
:100720000DF01EFEC4E904014A46534648465146B0
:100730000EF0FCF8CDE90701D4E906230DF010FE18
:10074000C4E9060143463A46484651460EF0EEF8E3
:10075000D4E908230DF004FEC4E908013A464346F3
:10076000104641460EF0E2F8D4E90A230DF0F8FDF8
:10077000C4E90A01DDE905012A4633460EF0D6F840
:10078000D4E912230DF0ECFDC4E91201DDE900010A
:100790004A4653460EF0CAF8D4E914230DF0E0FDA2
:1007A000C4E91401DDE9030143463A460EF0BEF800
:1007B000D4E916230DF0D4FDC4E91601DDE90001EA
:1007C0002A4633460EF0B2F8D4E918230DF0C8FDDE
:1007D000C4E91801DDE9070153464A46CA461F46E7
:1007E000CDE900010EF0A2F8CDE90210D4E91A23F8
:1007F0000DF0B6FDC4E91A015D46434646465A4629
:10080000504639460EF092F8834633462A46049104
:100810000EF08CF8D4E91C230DF0A2FDC4E91C01F4
:10082000DDE90E8399464246314628460EF07EF8B1
:1008300042464B460EF07AF8D4E91E230DF090FDA7
:10084000C4E91E01584652463B4604990EF06EF824
:10085000D4E920230DF084FDC4E920012A46334663
:10086000104631460EF062F833462A460EF05EF826
:10087000CDE90601D4E922230DF072FDC4E922017D
:1008800042464B46404649460EF050F883464246A3
:100890004B460C910EF04AF842464B460EF046F895
:1008A000D4E924230DF05CFDC4E92401DDE9021044
:1008B00052463B460EF03AF8D4E926230DF050FD9F
:1008C000C4E92601DDE9060133462A460EF02EF87A
:1008D000D4E928230DF044FDC4E9280158465246C6
:1008E0003B460C990EF022F852463B460EF01EF89D
:1008F000D4E92A230DF034FDC4E92A0158463346D1
:100900002A460C990EF012F833462A460EF00EF8DD
:10091000D4E92C230DF024FDC4E92C01DDE900010C
:1009200033462A460EF002F833462A460DF0FEFF03
:10093000D4E92E230DF014FDC4E92E0111B03CE5DD
:100940002DE9F74F0446B8B0D4E90C0102460B4636
:10095000CDE904010DF0EAFFD4E90023CDE90C2331
:10096000D4E9305607468846284631460DF0DEFF6A
:1009700043463A460EF000FACDE90201D4E90E01F1
:1009800002460B46CDE91A010DF0D0FFD4E906234B
:100990000746884628463146CDE910230DF0C6FFAC
:1009A00043463A460EF0E8F9CDE90001D4E91001DA
:1009B00002460B46CDE90E010DF0B8FFD4E90A233B
:1009C0000746884628463146CDE914230DF0AEFF90
:1009D00043463A460EF0D0F9CDE90801DDE91A2187
:1009E0000B46DDE904010DF0A1FFD4E9022307461F
:1009F0008846284631460DF099FF43463A460EF0A8
:100A0000BBF93491DDE90E2182460B46DDE9040194
:100A10000DF08CFFD4E9042307468846284631466A
:100A20000DF084FF3A4643460EF0A6F98946DDE90B
:100A30000E2183460B46DDE91A010DF077FFD4E95C
:100A4000082307468846284631460DF06FFF3A4690
:100A500043460EF091F907468846DDE90401DDE9D9
:100A600014230DF063FFCDE90A01D4E916232846CB
:100A700031460DF05BFFCDE91601DDE90401DDE94A
:100A800010230DF053FFCDE91201D4E914232846B9
:100A900031460DF04BFFCDE90601DDE90401DDE94A
:100AA0000C230DF043FFCDE90401D4E912232846BD
:100AB00031460DF03BFFDDE904230EF05DF9DDE981
:100AC00006230DF04DFCDDE912230EF055F9DDE9AA
:100AD00016230DF045FCDDE90A230EF04DF94FF029
:100AE000FF320EF044FFCDE92601DDE91A01DDE910
:100AF00014230DF01BFFCDE91601D4E91C23284671
:100B000031460DF013FFCDE91201DDE91A01DDE9EF
:100B100010230DF00BFFCDE90A01D4E91A23284672
:100B200031460DF003FFCDE90601DDE91A01DDE9EB
:100B30000C230DF0FBFECDE90401D4E9182328466F
:100B400031460DF0F3FEDDE904230EF015F9DDE981
:100B500006230DF005FCDDE90A230EF00DF9DDE9B1
:100B600012230DF0FDFBDDE916230EF005F94FF021
:100B7000FF320EF0FCFECDE90401DDE90E01DDE9F6
:100B800014230DF0D3FECDE90A01D4E9222328462F
:100B900031460DF0CBFE0DF1380CCDE906019CE895
:100BA0000F000DF0C3FECDE91001D4E92023284643
:100BB00031460DF0BBFECDE91201DDE90E01DDE9A4
:100BC0000C230DF0B3FECDE90C01D4E91E23284619
:100BD00031460DF0ABFEDDE90C230EF0CDF8DDE97A
:100BE00012230DF0BDFBDDE910230EF0C5F8DDE9A1
:100BF00006230DF0B5FBDDE90A230EF0BDF84FF03A
:100C0000FF320EF0B4FE37910546DDE90201DDE961
:100C100000230DF08BFEDDE908230DF087FECDE902
:100C20000601DDE902013A4643460DF07FFE3A46F1
:100C300043460DF07BFECDE90A01DDE900015A468D
:100C40004B460DF073FE5A464B460DF06FFECDE954
:100C50000C010122504634990EF089FE5A464B464B
:100C60000DF064FE3A4643460DF060FE06460E91D6
:100C7000DDE908015246349B0DF058FE5246349B84
:100C80000DF054FE32460E9B0EF076F8DDE90C2393
:100C90000DF066FBDDE90A230DF062FBDDE90623BA
:100CA0000EF06AF800221346CDE90C010DF06CFD40
:100CB0007ED03A464346504634990DF037FE2A46D8
:100CC000379B0DF033FECDE90A01DDE908015246FC
:100CD000349B0DF02BFECDE92310DDE904230DF04C
:100CE00025FECDE90601DDE90001DDE908230DF06F
:100CF0001DFEDDE926230DF019FECDE910013A466F
:100D00004346104619460DF011FEDDE926230DF08D
:100D10000DFECDE90E01DDE90423384641460DF014
:100D200005FE06461291DDE900012A46379B0DF0CB
:100D3000FDFD3246129B0EF01FF85A464B460DF051
:100D4000F5FDDDE90E230DF00BFBDDE910230EF0C0
:100D500013F8DDE906230DF003FBDDE90A230EF0AD
:100D60000BF8CDE912015A464B46504634990DF026
:100D7000DDFD199106462A46379B0DF0D7FDCDE9DA
:100D80000A01DDE92310DDE926230DF0CFFDCDE9D1
:100D90000601DDE90201DDE908230DF0C7FDDDE90B
:100DA00004230DF0C3FD5A464B46CDE90E0100E089
:100DB00006E1104619460DF0B9FDDDE904230DF0FA
:100DC000B5FDCDE90801DDE92623584649460DF079
:100DD000ADFDCDE91001DDE902012A46379B0DF09A
:100DE000A5FDDDE910230DF0C7FF3A4643460DF09F
:100DF0009DFDDDE908230DF0B3FADDE90E230DF0CA
:100E0000BBFFDDE906230DF0ABFADDE90A230DF0A7
:100E1000B3FFCDE90E01DDE90423304619990DF049
:100E200085FD06460891DDE900015A464B460DF066
:100E30007DFDDDE926230DF079FDCDE90601DDE933
:100E40000201DDE900230DF071FD2A46379B0DF00C
:100E50006DFDCDE90001349B5246104619460DF058
:100E600065FD2A46379B0DF061FDDDE926238B46A3
:100E70000A90504634990DF059FD0DF1080C0546C5
:100E800089469CE80F000DF051FD2A464B460DF0B7
:100E900073FF3A4643460DF049FD5B460A9A0DF052
:100EA0005FFADDE900230DF067FFDDE906230DF0B1
:100EB00057FA3246089B0DF05FFF05460E46DDE906
:100EC0001201DDE90C230DF007FB399A81468A46B1
:100ED000C2E90001DDE90E01DDE90C230DF0FCFAA9
:100EE000399A07468846C2E90201DDE90C23284603
:100EF00031460DF0F1FA399A05460E46C2E9040171
:100F0000D4E910230DF012FD0291D4E90E2383469B
:100F1000384641460DF00AFDCDE90001D4E90C2325
:100F2000484651460DF002FDDDE900230DF018FAA8
:100F30005A46029B0DF014FA01220EF018FD83466A
:100F40000091D4E90001D4E906230DF009FAD4E9AF
:100F50000A230DF005FA5A46009B0DF00DFFD4E967
:100F600030230DF0B9FACDE900012A463346104688
:100F700019460DF0DBFC04468B463A4643461046C4
:100F800019460DF0D3FC05460E464A465346104618
:100F900019460DF0CBFC2A4633460DF0E1F95B46CD
:100FA00022460DF0DDF9DDE900230DF0D9F90CF052
:100FB000F1FF3A9AC2E9000101203BB0BDE8F08F91
:100FC0000020FAE72DE9F34F9DB004461E98D0E9C2
:100FD000006732463B46304639460DF0A7FCD4E95F
:100FE0000C939A464A460DF0A1FC4A4653460DF032
:100FF0009DFC05468846D4E9300132463B46CDE9A2
:1010000008010DF093FC32463B46CDE90B010DF093
:101010008DFCD4E90023CDE906230DF087FC2A4698
:1010200043460DF0A9FE0191DDE9062383463046D3
:1010300039460DF07BFC4A4653460DF077FC0546D9
:101040008846DDE90B01D4E912230DF06FFC5A4606
:10105000019B0DF09FFD2A4643460DF081F9CDE935
:1010600000010122304639460EF081FC1E9ACDE97E
:101070000201D2E9025398462A460DF057FC4A462F
:1010800053460DF053FCD4E90E23CDE904230DF0B3
:101090004DFC83460A91DDE9080101220EF067FC50
:1010A00032463B46CDE914010DF040FC43462A464A
:1010B000CDE90F010DF03AFCD4E902230DF036FC26
:1010C000DDE900230DF04CF95A460A9B0DF054FE61
:1010D000CDE900014A465346304639460DF026FC1C
:1010E000CDE90D01D4E906B35A460A930DF01EFC72
:1010F00006460F46DDE90B01D4E914230DF016FC7A
:10110000DDE900230DF046FD32463B460DF028F99F
:10111000CDE90001DDE902011E9AD2E904631F4610
:1011200032460DF003FC4A4653460DF0FFFBD4E96E
:101130001023CDE902230DF0F9FB81468A46DDE953
:101140000F013B4632460DF0F1FBD4E904230DF0CC
:10115000EDFBDDE900230DF003F94A4653460DF09F
:101160000BFECDE90001DDE90D01D4E90A939A46B1
:101170004A460DF0DBFBCDE90E01DDE90B01D4E9B8
:1011800016230DF0D3FBDDE900230DF003FDDDE9AF
:101190000E230DF0E5F8CDE90001DDE906016FF061
:1011A00001020EF0E4FBDDE906230DF0BFFBCDE903
:1011B0000C01DDE908016FF001020EF0D8FBCDE96A
:1011C0000E01D4E924230DF0B1FBDDE900230DF07D
:1011D000C7F8DDE90C230DF0CFFDCDE90001DDE915
:1011E0000623284641460DF0A1FBDDE904230DF05E
:1011F0009DFBCDE91201DDE908012A4643460DF0C9
:1012000095FBCDE90B01D4E918230DF08FFBDDE947
:1012100000230DF0BFFCDDE912230DF0A1F8CDE9AC
:101220000001DDE906014FF0FF320EF0A0FB5A4647
:10123000CDE916010A9B0DF079FBCDE91A01DDE934
:1012400008014FF0FF320EF092FBCDE91101D4E915
:101250002A230DF06BFBDDE900230DF081F8DDE9B9
:101260001A230DF089FDCDE90001DDE906233046A2
:1012700039460DF05BFBDDE902230DF057FBCDE9AC
:101280001A01DDE9080132463B460DF04FFBCDE97E
:101290000601D4E91E230DF049FBDDE900230DF022
:1012A00079FCDDE91A230DF05BF8CDE90001DDE9F9
:1012B00016014A4653460DF039FBCDE90801DDE938
:1012C0001101D4E92C230DF031FBDDE900230DF0F1
:1012D00047F8DDE908230DF04FFDCDE900012A466E
:1012E0004346104619460DF021FBDDE904230DF0BD
:1012F0001DFBDDE904230DF019FBCDE91601DDE945
:101300000B012A4643460DF011FB5A460A9B0DF08D
:101310000DFBDDE900230DF023F8DDE916230DF0C8
:101320002BFDCDE900015A46284641460A9B0DF0A7
:10133000FDFADDE904230DF0F9FACDE91601DDE946
:101340000B01D4E91A230DF0F1FADDE900230DF0C9
:1013500021FCDDE916230DF003F8CDE9000101229F
:10136000284641460EF003FB32463B460DF0DEFABE
:10137000DDE904230DF0DAFADDE902230DF0D6FAF7
:10138000CDE90801DDE914012A4643460DF0CEFA05
:1013900032463B460DF0CAFAD4E908230DF0C6FAEE
:1013A000DDE900230CF0DCFFDDE908230DF0E4FCAF
:1013B000CDE90001DDE90423284641460DF0B6FAE7
:1013C0004A4653460DF0B2FA80460D46DDE90B0160
:1013D000D4E91C230DF0AAFADDE900230DF0DAFBB5
:1013E00042462B460CF0BCFF054601916FF001020E
:1013F00058460A990EF0BBFA5A460A9B0DF096FA27
:1014000080460091DDE90E01D4E926230DF08EFA25
:101410002A46019B0CF0A4FF4246009B0DF0ACFC59
:1014200080460D465A46304639460A9B0DF07EFAF4
:10143000DDE902230DF07AFACDE90001DDE90601CC
:10144000D4E920230DF072FA42462B460DF0A2FBA0
:10145000DDE900230CF084FF054688464FF0FF329B
:1014600058460A990EF083FA4A4653460DF05EFA42
:1014700083460091DDE91101D4E92E230DF056FADF
:101480002A4643460CF06CFF5A46009B0DF074FC54
:101490000546884632463B46104619460DF046FA48
:1014A000DDE902230DF042FADDE902230DF03EFAF8
:1014B00083460091DDE9060132463B460DF036FADF
:1014C0004A4653460DF032FA2A4643460CF048FF8E
:1014D0005A46009B0DF050FC054688464A46534646
:1014E000304639460DF022FADDE902230DF01EFAEE
:1014F00006460F46DDE90601D4E922230DF016FA6F
:101500002A4643460DF046FB32463B460CF028FF88
:10151000074688466FF00102484651460EF027FA0A
:101520004A4653460DF002FA06460D46DDE90E0125
:10153000D4E928230DF0FAF93A4643460CF010FF9F
:101540001FB032462B46BDE8F04F0DF015BC30B54C
:101550000446B0F88C0089B000040690B4F88E0000
:101560000D4600040790B4F89000883400040890F9
:1015700002A809F01FFB029906982B46401A069014
:101580000399079806AA401A079004990898401AE8
:1015900008902088616A80B209F05DF909B030BD19
:1015A0002DE9F04786B00D466946FFF7D0FF0026CB
:1015B00037463446E9466FF00F0A0DF10C0859F82A
:1015C00024000DF095FE51460EF0FFF948F8240076
:1015D00001460DF01DFF0DF0B9FC32463B460CF004
:1015E000BFFE641C06460F46032CE8DB0CF0D2FC61
:1015F00006460F46002458F824000DF0A7FC32469A
:101600003B460CF069FF0CF079FE55F824100DF004
:10161000C9FC45F82400641C032CECDB686D401CFD
:10162000686509F08DFDE86706B0BDE8F0872DE933
:10163000F041044609F068FB40BB09F0E9FA0428D0
:1016400024D0FE4920460E46FFF7AAFFFC4DD5E9FF
:101650005C01814205DB304602F055FF0020C5F8F1
:101660007401208E4FF00406C00515D504F1180052
:1016700009F03CFB8009B0F5C87F0AD2D5F8B80064
:10168000002850DD401EC5F8B8004AE00120BDE842
:10169000F081C5F8B86044E0D4F8A010D5F8140182
:1016A000081A01D4034600E04342E44A4FF4A02C58
:1016B000583A634505DDD4E929035365C2E913109F
:1016C0002FE00312D4F8A470D5F818015B43381A40
:1016D00001D4864601E0C0F1000EE64505DDD4F8F0
:1016E000A800D164C2E914701BE0001200FB0033B3
:1016F000D4F8A800D5F81C11401A01D4014600E026
:10170000414261450DDC001200FB0030B0F5403F66
:10171000B4DBA034C5F8B86094E80B004C3282E822
:101720000B000020B3E70220B1E72DE9F04F93B0A2
:10173000C34CD0E90023D4F8A81004EBC101C1E9DF
:101740000023D4F8A810491CC4F8A810D0E902233B
:1017500004EBC101C1E90023D4F8A810491CC4F866
:10176000A810D0E9042304EBC100C0E90023D4F899
:10177000A800401CC4F8A800152802DB0020C4F80B
:10178000A8001822AE490CA803F055FE1822AC4957
:1017900004A803F050FE01260DF130090DF1100AE6
:1017A000A346002406EB460808EB04010BEBC10539
:1017B00009EBC407D5E90023D7E900010DF0B4F91E
:1017C00003D2D5E90001C7E90001D5E900230AEBFE
:1017D000C407D7E900010DF06DF803D2D5E9000187
:1017E000C7E90001641C032CDEDB761C072ED8DB66
:1017F000DDE90401DDE90C230DF0BEFA05460C46D7
:10180000DDE90601DDE90E230DF0B6FA2A4623468E
:101810000DF050F802D22846214605E0DDE9060128
:10182000DDE90E230DF0A8FA05460C46DDE90801B6
:10183000DDE910230DF0A0FA2A4623460DF03AF810
:1018400004D213B028462146BDE8F08FDDE9080137
:10185000DDE9102313B0BDE8F04F0DF08DBA2DE98E
:10186000F0419CB0064600240E945520CDE90F406F
:101870001190744D0AA809F067F912A90AA809F095
:101880005BFD16AA0EA912A809F071FD6A460AA905
:1018900016A809F06CFD01986B4F00F59670019049
:1018A000029800F596700290039800F596700390E8
:1018B0003846FEF707FE0DF0DFFC01990844019061
:1018C0003846FEF7FFFD0DF0D7FC02990844029060
:1018D0003846FEF7F7FD0DF0CFFC0399084403905E
:1018E000304601A9FEF7B3FED6E930010022574B7E
:1018F0000DF01AF935D21AAA04A93046FFF720F8DC
:1019000078B3DFF84C81DDE90801002243460DF091
:1019100033FA02460B460DF009F806460F46DDE99C
:101920000601002243460DF027FA02460B460CF052
:10193000FDFF04460D46DDE90401002243460DF09B
:101940001BFA02460B460CF0F1FF22462B460CF028
:1019500007FD32463B460CF003FD0CF01BFB044632
:101960000D461CB020462946BDE8F0410022394B07
:101970000CF0B2BD10B5E821374803F0F5FD304852
:10198000364920F8BC1F4A0CC280C1818282818303
:1019900042842B48E821E83803F0E6FD284900207E
:1019A000C1F8B40010BD2DE9F04F254F0446C5B075
:1019B000006BC7F8A0012046FFF739FE00287DD153
:1019C000D7F8941107F1BC003D90012911D1B4F969
:1019D0008C004090B4F98E004190B4F99000429090
:1019E00040A91D48FEF733FE04F18C013D9800F03C
:1019F00023FBD7F80801002802DD401EC7F80801C4
:101A000015480022E8381346D0E9305128460DF039
:101A10008BF87CD21049E822E839684603F00BFDC8
:101A20000D4840A9E838FEF712FE0B493EAA2039BE
:101A3000A1F1C8004391FEF783FF11E0300B0020B5
:101A4000100A002000408F40000028410000344070
:101A500000C0724000000840400800200080FFFFE6
:101A6000002866D0FE484399FFF7ACFAD7E9402337
:101A700005460E46E0370DF07FF9DFF8E4B3804607
:101A80008946DBE930010022F64B0DF075F902467C
:101A90000B46404649460CF01FFD0CF07BFADBE993
:101AA000308B81468A460022EE4B404659460DF067
:101AB00063F942465B460CF039FF00E0C1E0804626
:101AC0008B460122284631460DF051FF42465B46C7
:101AD0000CF002FD0CF05EFAB8680DF037FA77E80A
:101AE00038230CF023FF4A4653460CF0E3FE03D3A1
:101AF000D7F80801002822DDE8226946D84803F01B
:101B00009AFCD7F8E800E0370DF020FA00E00FE08B
:101B100077E838230CF00AFF4A4653460CF0CAFE19
:101B20004CD24FF4FA7002F091FF0A20C7F8080176
:101B300044E0E8226946CA4803F07DFC3EE0D7F85D
:101B4000980101283AD1D7F8B400401CC7F8B40076
:101B500000200AF0A9F8DFF808831022D8E9320142
:101B60000DF005FF0CF04CFE3A90D8E9340110223C
:101B70000DF0FDFE0CF044FE3B90D8E9360110223A
:101B80000DF0F5FE0CF03CFE3C9003213AA809F064
:101B9000EFFFD8E930010022B34B0CF0C5FF0BD2A8
:101BA000B24A414613460846FEF7BEFC40464399FA
:101BB000FFF708FA05460E46C7E94056208EC005D5
:101BC00009D5B4F87400C00505D5A948FFF747FE4C
:101BD00005460E4601E0A74E0025A1480022E83048
:101BE000A54BD0E9301C084661460CF063FE28D3B3
:101BF0009F493EAA2039A1F1C8000291FEF7A0FE3C
:101C000000287DD0D4F8AC000CF029FE02460B462B
:101C10009A489B490CF060FC804689460298FFF781
:101C200084FD82468B4642464B460CF07DFF09D22E
:101C30000022944B284631460CF03CFE02D2FFF7BE
:101C400099FE8EE142464B46504659460CF032FE14
:101C50007ED200228C4B284631460CF02BFEF7D268
:101C60007F4E0022E836894BD6E930010CF05CFF4C
:101C7000EED2DFF8ECB100221346DBE930010CF0C4
:101C800083FD72D130460299FFF79CF9B84607F5FB
:101C90008077B14603C7D6F8C060D9F8C47004464F
:101CA0000D4600226F4B304639460DF065F832463E
:101CB0003B460CF03BFE06460F46012229462046D5
:101CC0000DF055FE32463B460CF006FC0CF062F976
:101CD00004460D46D8F8E8000DF038F9D8E9382365
:101CE0000CF024FE22462B460CF0E4FDA7D33DACBD
:101CF000029994E80D00FEF7E3FA02289FD000E075
:101D000030E100289DD1D8F89801012899D1002010
:101D100009F0CAFF4C461022F4E932010DF027FE0B
:101D20000CF06EFD3A90D4E9020110220DF01FFE76
:101D30000CF066FD3B90D4E9040110220DF017FE73
:101D40000CF05EFD3C9003213AA809F011FF01E080
:101D5000FDE00AE0012009F03BFF19200390049008
:101D6000059003A809F02AFFE8E0B946D7F8B400C7
:101D70000CF075FDD6E930230CF0AEFB444A454B20
:101D80000CF0D2FEB2D336480299E830FFF71AF9C8
:101D9000B246D6F8C060DAF8C47080460D4600221C
:101DA000304B304639460CF0E7FF32463B460CF0EC
:101DB000BDFD06460F460122404629460DF0D7FDDF
:101DC00032463B460CF088FB0CF0E4F806460F4622
:101DD000D9F8E8000DF0BAF8D9E938230CF0A6FDDF
:101DE00032463B460CF066FDCCD33DAE029996E8F8
:101DF0000D00FEF765FA00287ED15F465646D7E90A
:101E00003623D6E93601C836C8370CF0B5FF02468E
:101E10000B460CF08BFDD7E9022382468B46D6E9B0
:101E200002010CF0A9FF02460B460CF07FFDCDE944
:101E30000001D7E9002376E832010CF09DFF02464D
:101E40000B460CF073FDDDE900230CF089FA5246D5
:101E50005B460CF085FA0CF09DF807468A461BE0BD
:101E6000580700200000F03F00409F406666E63EB5
:101E70002809002000000840000034409A999999F0
:101E80009999A9410000F83F0000104000003E4031
:101E90000AD7A3703D0AE73FD4F8AC000CF0DFFC92
:101EA0003A4653460CF042FD6FF01D020DF05FFD07
:101EB00004460F4600228D4B0CF036FE15D300224F
:101EC0008B4B204639460CF02FFEBFF4B8AED9F844
:101ED000B4000CF0C4FCD6E930230CF0FDFA4FF04E
:101EE0003332844B0CF0E6FCEFD2D9F898014C4623
:101EF00001287FF4A4AE00E033E0002009F0D4FE16
:101F0000C4E94085F6E9320110220DF030FD0CF0F5
:101F100077FC3A90D6E9020110220DF028FD0CF072
:101F20006FFC3B90D6E9040110220DF020FD0CF06F
:101F300067FC3C9003213AA809F01AFE6E494FF065
:101F40007E530022A1F1E800FEF7EEFA77E66A4838
:101F500000226A4BD0E93014084621460CF0E4FD1B
:101F6000F4D3002045B06FE470B5654C0546D4F855
:101F70000C0110B9284600F08AF8D5F8B01044F6E4
:101F8000206081420ADAD4F8102111448142C4F859
:101F900010114FF0000005DBC4F810012846BDE821
:101FA000704000E570BD04224FF4C871AFF24700E5
:101FB00009F04CBCAFF24F0009F0E2BF4E4810B53B
:101FC000E821E83803F0D0FAFFF7D4FC4FF4D471DD
:101FD0004B4803F0C9FA4A4C4FF07E50C4F8E80071
:101FE00004F5907004F5887402F0F7F90A20206671
:101FF0004FF08240E0641E20E0664248A0674248FD
:1020000060674248E067002010BD10B5FFF7D6FFBB
:10201000002805D1AFF27100BDE8104009F0DABC2C
:1020200010BD10B5AFF2BF0009F0AAFFAFF28900F2
:10203000BDE8104009F0D6BF30B50022C2EBC203A4
:1020400031F9124030F91350AC420ADD02EB420480
:102050000D8820F8245000EB84044D8865808D881D
:10206000A58000EB430331F91240B3F906309C42DE
:1020700009DA02EB420300EB83030C88DC804C8816
:102080001C818C885C81521C032AD7DB30BD70B563
:102090001B4DD0F8AC200446EAB1D317002019211B
:1020A00002F0A3FF45F8AC0F54F8AC2F0020D31773
:1020B000052102F09AFF686022680020D31796215C
:1020C00002F093FF0CF0CBFBC5E90D01AC3D012004
:1020D000C5F80C0170BD6FF00040C5F8AC00C5F844
:1020E000B0000B498005C5E93801F0E70000104059
:1020F000000004403333C33F4008002000409F40AD
:10210000100A0020CDCCCC3E3333333F9A99193F8F
:10211000FFFFDF4110B5F949C4074FF040434FF0CE
:10212000804205D08B66CB66C1E91C328A67CA67DC
:10213000840709D5C1F80031C1F80431C1E9423240
:10214000C1F81021C1F81421400709D5C1F8983110
:10215000C1F89C31C1E96832C1F8A821C1F8AC21AD
:1021600010BD2DE9F14F82B0002102988A468946C0
:10217000806F00287DD000220020401C0428FCDB5A
:1021800002984FF0000C00EBC203D3E90010A1FB52
:102190000167D3E9065400FB017701FB0077CDE925
:1021A0000067A646AE1B64EB0704AB460327A6FBFD
:1021B000075804FB078406FB0C44DDE90067AD19F2
:1021C0007C41A5FB016704FB017405FB0045D3E9D5
:1021D0000C47341B65EB0705CDE900455D46A5FBC3
:1021E00005670324A6FB04580EFB0B770BFB0E7749
:1021F00007FB048406FB0C44D3E91263761B63EBF4
:1022000004034C18A4FB017C40EB000505FB01C551
:1022100004FB0055A7FB014C05FB01C507FB00555E
:10222000A4FB017C05FB01C504FB0054F6196341C6
:10223000DDE90045AD0045EA9475A400A4FB017CEE
:1022400005FB01C104FB0014F01B73EB040103D573
:102250000023404263EB0101BAEB000479EB010378
:1022600001DA82468946521C032A85DB50464946DC
:1022700000E010E00DF057F8A149896B0CF006FF63
:102280000DF0FCFA9D4AD2F80C2203B09200BDE892
:10229000F04F02F097BE002003B00146BDE8F08F7A
:1022A0002DE9F14F0020009A0146926FF2B300240D
:1022B0000022521C042AFCDB009A02EBC405AA4649
:1022C000D5E90029A2FB023CD5E906769E46FB1A19
:1022D0000325A3FB057809FB02CC02FB09CB66EBC7
:1022E0000B0606FB05854FF0000C03FB0C5617EBA5
:1022F0000E03A3FB027C46EB0B0606FB02C203FBAC
:102300000923DAE90C25BA1AAB4103D5002552425C
:1023100065EB0303851A71EB030501DA10461946D4
:10232000641C032CC4DB0CF0FEFF00E00EE07449DB
:10233000896B0CF0ABFE0DF0A1FA704AD2F80C22BA
:10234000BDE8F84F02EB420202F03CBE002001461D
:10235000BDE8F88F2DE9FE43684D80460024D5F88E
:1023600010626F4605EBC4013246D1E9020102F06A
:1023700016FE05EB8401B1F884100904401847F8F3
:10238000240004F10104032CECDB5C4898210830A4
:1023900003F0EAF80120FFF7BDFE95F8E801019986
:1023A000042807D1D5F81802B0F5201F02DD05205A
:1023B00085F8E801524C0098636AC11A01D40E46B0
:1023C00000E01E1A0198A26A801A01D4074601E0B3
:1023D000019FD71BBE4206DD002901D4084606E056
:1023E0000098181A03E0002801D50198101A029AE3
:1023F000E16A521A01D4134601E0029BCB1A8342D0
:1024000005DB002A01D4104601E00298081AD8F82A
:10241000241008F052FFD5F81812814206DD03217E
:10242000684609F0D7FC022009F03CFD0098606284
:102430000198A0620298E062BDE8FE83304AC2E9DA
:10244000020170472E4AC2E9060170472C4AC2E9D0
:1024500004017047294AD2F8E0310360D2E97402DE
:10246000C1E900027047254AD2F8E0310360D2E9A1
:102470007602C1E9000270472DE9FE47814600203F
:10248000EA468A6F22B901EB800339F91020DA6736
:1024900001EB800239F91030D46F1D1B4AF820502F
:1024A000136E9D4200DD1566D36E9D4200DAD5663F
:1024B0000123002422464FEAE578A3FB056704FBCD
:1024C000057403FB0844334602EB420601EBC606E3
:1024D00006EBC00CDCE90076FF186641CCE900761B
:1024E000521C042AE9DB401C0328CADB886F401C0D
:1024F00088670120C1F89000BDE8FE87B80B002076
:10250000180E002030B5002302EB830550F823405D
:102510005B1CEC66032BF7DBC2F88810916F79B176
:10252000002102EB810450F82130E56F5B1B00D5E0
:102530005B42256E9D4200DA2366491C0329F0DBCD
:10254000906F401C90670120C2F8900030BD10B51C
:1025500000210B4600EB8102491CD46ED467136640
:102560000329F7DBD0F8881040F8783FC0E905135D
:1025700010BDD0E92210081A70470146D1E91802AF
:10258000824200DB1046896E814200DB08467047BC
:102590002DE9F0478046501E012686408946C2F14B
:1025A0002007404602F00EFD04460D4640464946CF
:1025B0003A4602F0F4FC3A4602F004FDB04203DD74
:1025C000641C45F1000505E07142884202DA641E90
:1025D00045F1FF3520462946BDE8F087F749002040
:1025E000086248628862C862086448648864C86493
:1025F000086348638863C863086548658865C8657B
:10260000704730B5EE4AD2F8483223B1D2E990543F
:102610002D1A8C4101DAC2E990015B1CC2F84832E4
:1026200030BD30B5E64AD2F8583223B1D2E99454DD
:102630002D1A8C4101DAC2E994015B1CC2F85832B0
:1026400030BD30B5DE4AD2F828322BB1D2E9884508
:10265000041B71EB050401DAC2E988015B1CC2F8B6
:10266000283230BD30B5D64AD2F838322BB1D2E953
:102670008C45041B71EB050401DAC2E98C015B1C7B
:10268000C2F8383230BD2DE9F0470246CC4801256A
:1026900008308046C36E016E046FC91A436E1B1B5F
:1026A0008B4200DB1946836ED8F87400181A8842F2
:1026B00000DB0146C14F6037F86B884204DA002422
:1026C00000F00AFA204687E7108E0124BC4EC005B0
:1026D0004FF000010ED5D6F880303068834209DB18
:1026E000B2F87420D20506D5D6F8B021824201DBBB
:1026F000052400E00C4674B3600719D5AF48C8380C
:102700008146FFF72EFD000D40EA01300915C6E9AC
:102710007601D7E904321B1A8A4102DA0025FFF755
:10272000A1FF9821484602F01FFF0420FFF7F2FCAA
:10273000E0070ED04046FFF714FDC6E97C01D7E95B
:1027400006340246181A8C4103DA00251046FFF7BA
:1027500078FF284640E7FFE702203DE71EB5044624
:1027600090F83000C0F38110032804D19449201D53
:102770000831FFF781FE94F87400C0F3811003283C
:1027800005D18E4904F14800C839FFF775FED4F829
:10279000B8008B4AC0F38113A0326946032B0FD0D7
:1027A000C0F3411003281AD1002004EB8003D3F8B2
:1027B000A0309B1341F82030401C0328F5DB09E0D2
:1027C000002004EB4003B3F98C3041F82030401C6A
:1027D0000328F6DB6846D4F8C010FFF793FE1EBD51
:1027E0002DE9F04705460020296BCA0567D501F0A1
:1027F0005001402900D1012095F8741001F05001DA
:10280000402900D1012095F8B8106D4C01F050011D
:10281000402900D030B100F05FF90020C4F8E00199
:1028200084F8E801654ED4F80812E86A60368142FF
:1028300025D0C4F808020A28306B0ADA400020606C
:10284000716B491CC4F80C120CF052FD0BF0C8FB64
:1028500004E02060706BC4F80C02B06BC4F8140282
:10286000D4F80C02C0F11000C4F810024FF48040FC
:10287000C4F8180296F8341019208840F0632846EE
:10288000FFF76CFF94F8E811DFF8349105274FF05B
:10289000020809F1A009072911D2DFE801F00411AB
:1028A00027305E7E8500D4F8E001411CC4F8E011B9
:1028B0000A2804DB00F010F9012084F8E80186E022
:1028C000D4F89800012810D12846FFF7DCFE10B19B
:1028D000012803D004E084F8E87101E084F8E8817D
:1028E0004846FFF734FEFFF779FE70E0032084F8D6
:1028F000E8012846FFF72EFD00F0EEF867E02846D5
:10290000FFF7C1FEF0B3012861D1B5F8B8004FF070
:102910000403C00515D54846FFF72FFE0146C01732
:10292000C4E97410D6E902C2BCEB0101824102DAAB
:1029300084F8E87108E04846FFF71BFE316A8842D8
:1029400002D384F8E83124E0F4E97601FFF769FE68
:10295000D4E90601FFF755FE39E0B5F8B800C00527
:102960000BD54846FFF709FE0146C017C4E97410AD
:10297000D6E90232591A824108DB2846FFF783FE66
:1029800000B100E002E0012803D020E084F8E87103
:102990001DE02846FFF7DEFCD6E7062084F8E801B4
:1029A000012009F07FFA0DE02846FFF76CFE0128B0
:1029B00001D038B10BE084F8E88108E0B80D0020C0
:1029C000B80B002000F088F84846FFF7C0FD002053
:1029D00002E610B500214010002802D001F10101EB
:1029E000F9DC454C4FF0010001F1010100FA01F062
:1029F000C4E90C010CF07CFC0BF0F2FAA06394F833
:102A0000341019208840E06310BD10B54FF41871E0
:102A10003A4802F0A9FD4021374802F0A5FD072001
:102A2000FFF778FB344840F2DC510022C0E906127F
:102A30001421C0E902124FF41671C0E904123049A2
:102A40002E4C01620120C4F8E4011920FFF7C1FFF8
:102A50000020C4F8080210BD10B54FF418712748C3
:102A600002F082FD0720FFF755FB244801210022D8
:102A7000C0F8E41180F8E8110321012009F004FAFC
:102A800007226421AFF2A720BDE8104008F0DEBEA7
:102A900010B5012009F006FAAFF2BB20BDE81040E6
:102AA00009F06EBA10B5FFF7B0FF002805D1AFF2FC
:102AB0005700BDE8104008F08DBF10BD10B5FFF7FE
:102AC000E7FFAFF26B00BDE8104009F08BBA0B498D
:102AD000D1E97C0170477047084810B5982108304B
:102AE00002F042FD9821074802F03EFDBDE810408B
:102AF0000520FFF70FBB0000180E0020B80B0020C8
:102B00000008AF2FF00C00202DE9FC5F0D460026D9
:102B1000416B99469246B046002904DBD0F8BC00D0
:102B2000032800D10126FF492422081F02F0B5FC2A
:102B3000FC4FC03F0024C7F8E05007EB8400D0F8FA
:102B4000BC1040460CF02EFA641C80460A2CF4DBC4
:102B5000F5490CF09BFAF54C80464FF0C80BC7F8CE
:102B6000E400BAF1320F21DB4846C7F81CB10CF083
:102B7000BFFB00900190EE4928460CF087FA0199BE
:102B80000CF046FC21460CF081FA0446BAF57A7F37
:102B900033DBE8492846009C0CF078FA21460CF01B
:102BA00037FCE2490CF072FA044626E041F2883123
:102BB00099FBF1F04042D7F81C1100EB800040185F
:102BC000C7F81C0102D50020C7F81C0148460CF0CC
:102BD0008FFB8246D84928460CF058FA51460CF033
:102BE00017FC21460CF052FA0446D7F81C0120B914
:102BF000D7F82801012800D10024D7F8200100B11E
:102C00002C46CE49894500D12C4614F0FF4F11D0F7
:102C10004046C7F8E88041460CF0BAFD20F000407D
:102C2000C7490CF0C1FC22D2D7F8B80010F0FF4F12
:102C300003D01CE0D7F8E800EDE7C6B14846C7F876
:102C40001CB10BF00CFE04460E4628460CF07EF933
:102C50000022BC4B0BF040FC224633460BF066FED4
:102C60000022B94B0BF038FC0BF048FB0446204621
:102C7000BDE8FC9F2DE9F04FABB04FF0000AA94F23
:102C8000CDF810A0C03FCDF814A0CDF818A0044690
:102C9000D7F82011022003297DD0002620AD07EBB4
:102CA0008600D0F8A8000CF023FB6FF01D010CF09B
:102CB0008CFE45F82600761C042EF0DB0FA807F0EA
:102CC00043FF24A807F0AAFF964B24AA183B0FA99C
:102CD0002046279300F0F4F9064604F1180008F0A6
:102CE00005F882099548D7F83031834200DB034666
:102CF00031462046FFF708FFBB4607F1B806D7F874
:102D0000EC100CF085FB30600BA807F01DFF13A939
:102D10000BA808F02DFD83480FAA3C300BA90646EE
:102D200008F025FB31460BA808F006FB00210DF149
:102D30003C080DF14C090DF1100E0022134610460F
:102D400001EB410C0CEB000759F8276008EB8007FA
:102D5000401C7F680328C6FB0723F3DB900F40EA83
:102D600083004EF82100491C0329E6DBDBF8200133
:102D70005F4600287DD05046CDF818A040420CF0A8
:102D8000B7FA6FF01D0949460CF01FFE05F010FF61
:102D9000D046564600E074E0CDE9000A0698CDF82A
:102DA00008A040420CF0A4FA49460CF00EFE0BF0CD
:102DB0002DF80390D7F8300141F2883190FBF1F003
:102DC0004FF0804A0CF094FA2890299006980CF065
:102DD0008FFADFF878B159460CF058F929990CF0C0
:102DE00055F951460CF052F90CF046FA40000690A5
:102DF000DDF8A0A00CF07CFA59460CF009FB514616
:102E00000CF006FB0CF038FA06900CF071FA49460B
:102E10000CF0DBFD05F0CCFECDE90706099606981F
:102E20000CF066FA49460CF0D0FD0AF0EFFF0A906C
:102E30001CAA694620A808F0F3FA6A4607A91CA84C
:102E400008F0EEFAD4F8BC00EA46002810DD0026AF
:102E50001E215AF8260045F826000CF0B6FD0CF0AD
:102E60000BFA07EB8601761CC1F8A800042EEFDBF5
:102E700000E00BE0D4F8BC004FF0FF3503280AD186
:102E800006E0C7F820012BB0BDE8F08F069875E783
:102E900002F07DF8F0B357F8A80F0CF029FA4E466F
:102EA00049460CF092FD1C9078680CF021FA3146EE
:102EB0000CF08BFD1D90B8680CF01AFA31460CF03E
:102EC00084FD1E90F8680CF013FA31460CF07DFD7D
:102ED0001F90B86FA83F0028D5D0D7F8B800294672
:102EE000A8370CF072FD05F063FE1E210CF06DFD9D
:102EF0000CF0C2F9C7E90008C7F80880294638690C
:102F00000CF063FD0AF082FF1E210CF05EFD0CF058
:102F1000B3F900E01CE0F860D4F8C010A83F27988F
:102F200044E00000180F00200000204100409C45B4
:102F300000004843000048420000C84340420F00E0
:102F40000E2DB23D000079400088B340E1023747C2
:102F50002946D7F8B8000CF038FD05F029FECDE978
:102F60000708CDF824802946D7F8B8000CF02DFDCD
:102F70000AF04CFF0A906A4607A920A808F050FA08
:102F8000684608F01DFB002556461E2156F8250010
:102F90000CF01BFD0CF070F907EB85016D1CC1F8FE
:102FA000A800042DF1DBD4F8C010279808F016FE15
:102FB000D7F8200100288FD0401E62E770B590F846
:102FC000B810664ACC064FF000034FF0030101D45D
:102FD000C2E94813B0F82041E40509D4048EE405A1
:102FE00003D5B0F87440E40502D4C2E948131AE0EE
:102FF000D2F8341139B1D0E93013C91A4FF47A73C9
:10300000B1FBF3F105E0D0F8B01044F62064A14222
:1030100002DBC2F830110AE0D2F82C512944C2F880
:103020002C11A14201DA002070BDC2E94B31FFF73B
:1030300021FEF8E710B54FF49C71484802F094FA6D
:10304000464C4FF080400021C4F8FC0044F8A80F23
:103050004248A83008F0C2FD4FF47A7060674FF024
:103060007E50606410BD3D49C1F8EC0000207047FF
:103070003A49C1F82801002070473849C1F83401A5
:103080000020704704224FF41671AFF2CF0008F011
:10309000DDBBAFF2D70008F073BF10B5FFF7CAFF72
:1030A0002E490020C1F82801C1F83401AFF22B00ED
:1030B000BDE8104008F08EBCAFF2370008F092BFB8
:1030C0002DE9FF470C4625491546074699463C22FF
:1030D0000C31224802F0E1F9204950225831A1F187
:1030E000100002F0DAF91D4E95E8070006F13C03E6
:1030F0001B4D83E807001ECC06F1980080E81E00F7
:10310000D6F82401401CC6F82401062802DD06205A
:10311000C6F82401C0F1060407F1A00818E006EB88
:1031200004116A464846483108F021F904EB44008E
:1031300006EB80016A46404607F03CFB074625F057
:10314000004120F000400CF02FF900D23D46641CF5
:10315000062CE4DB04B02846BDE8F087580E0020BA
:10316000002474491FB501461022684602F01EF97A
:10317000F6489DE80E0080E80E00F5499DF80C0029
:1031800081F8B001002004B010BD1FB5EF490EC991
:103190008DE80E00EE49102291F8B0118DF80C1058
:1031A000694602F003F90020EDE72DE9F04F91B0F8
:1031B00000251821684602F0D7F90024182106A836
:1031C00002F0D2F9E249A046C14691F8C0010128B7
:1031D0007ED1D1F8B8B1D1F8B4A10022C2EBC200BF
:1031E00000EB4001DA4800EB810E9EF850000F9092
:1031F000002863D000215EE05EF82130DDE9006741
:103200006D1CD8170E939B197841CDE900300EEB59
:103210008100EDB243690D93DDE9027CDE17DB1915
:1032200046EB0C06CDE90236836ADDE9047CDE1745
:103230000C93DB1946EB0C06CDE90436C06B0E9BF4
:10324000DDE9067C83FB0063360C46EA0346F6198B
:103250004CEB2343CDE906630D9BDDE9087C83FB42
:1032600000634FEA164646EA0346F6194CEB234341
:10327000CDE908630C9BDDE90A7C83FB00634FEA20
:10328000164646EA0346F6194CEB2343CDE90A639A
:1032900080FB00634FEA164646EA034616EB080831
:1032A00049EB23490444584501DA834602E050457E
:1032B00000DD8246491C0F9888429DDC521C052A7D
:1032C0008CDBA348AAEB0B01D0F8BC01814200E0E3
:1032D00053E052DBA5FB0872E01700260F9006FBB7
:1032E000082005FB09000E9084FB0410090C41EA3C
:1032F00000410014CDE90C0106A800EBC601D1E99C
:103300000002A0FB05BC02FB05C2002100FB012C52
:10331000684600EBC601D1E90002A0FB043802FBBD
:1033200004820F9900FB0120190C0CAA41EA004904
:103330004FEA204A92E80B0087EA010283EA00087C
:1033400052EA080212D07A1A63EB0003BBEB0900C1
:103350006CEB0A0C4FEA0C4141EA1041000401F009
:1033600044FE7B4901EB8601C1F8A401761C032EC3
:10337000C2DB7748012180F8B01111B00020BDE810
:10338000F08FF8B5724D0E460446D5E96D01091A65
:10339000052291FBF2F1301A90FBF1F0C0B28DF8EA
:1033A0000000042801D92020F8BDC0EBC00000EBCC
:1033B000400005EB800191F85000052816D0421C12
:1033C00081F850209DF80010C1EBC10101EB4101D3
:1033D00005EB810202EB8001CE63236842F82030C6
:1033E00060684861A06888620020F8BD01F1400370
:1033F000181F1022194602F050F89DF80000102204
:10340000C0EBC00000EB400005EB8000011D02F0A6
:1034100044F89DF800001022C0EBC00000EB400013
:1034200005EB800000F11801143002F036F89DF829
:1034300000001022C0EBC00000EB400005EB800054
:1034400000F12C01283002F028F80420BAE730B54A
:1034500085B0044603A9684607F01EFC04A807F0DF
:10346000DDFC02282BD0D4F8E4000399401A384937
:1034700091F8B02112B308B3D1F8A421009C80FBCD
:103480000232150445EA134222440092D1F8A821E1
:10349000019C80FB0232150445EA1342224401924A
:1034A000D1F8AC11029A80FB0110030443EA1140E9
:1034B000104402900321684608F08CFC0CE0606B1D
:1034C000032809D107F0FAFB30B168460399FFF7EA
:1034D00058FF08B9FFF769FE05B0002030BD10B5F0
:1034E0004FF4E2711A4802F03FF819481949C0F840
:1034F000B4114FF4AA01C0F8B8114FF4A021C0F8DC
:10350000BC11012180F8C011002010BD1049C1F884
:10351000B801002070470E49C1F8B401002070477F
:103520000B49C1F8BC010020704758B10849D1F8D7
:10353000A4210260D1F8A8214260D1F8AC118160C9
:103540000020704705207047242070473411002068
:10355000900F00200000D8FF20B12D4981F8C00154
:103560000020704724207047294B93F8B1010028B0
:1035700018D0D3E96D10401A052190FBF1F000201E
:10358000C0EBC00101EB410103EB810191F8502038
:1035900022B1002100E0491C8A42FCDC401C0528C5
:1035A000EEDB00207047082296211A4808F04EB939
:1035B000184808F0E5BC10B5FFF791FF4FF49A7377
:1035C00010221549154808F0BDF920B9AFF22900BD
:1035D00008F000FA08B1012010BD0D49012081F862
:1035E000B101002010BD10B5094C94F8B1010028BC
:1035F00008D0084808F0C4FCAFF2550008F0F2FC0F
:1036000008B1012010BD002084F8B10110BD0000F8
:10361000900F00204F3400088B31000865310008FE
:103620002DE9F043044699B01D4691460E46806848
:103630000BF05EFE01460BF0EBFE804660680BF07F
:1036400057FE01460BF0E4FE074620680BF050FEE3
:1036500001460BF0DDFE39460BF0A4FC41460BF0B1
:10366000A1FC0AF0BDFC074620F000404FF08D4160
:103670000BF09AFF7ED230680BF03AFE6FF01D0817
:1036800041460CF0A2F9049070680BF031FE4146FF
:103690000CF09BF90590B0680BF02AFE41460CF047
:1036A00094F90690F0680BF023FE41460CF08DF97A
:1036B00000260C96079020680BF01AFE39460BF096
:1036C000E5FC0D9060680BF013FE39460BF0DEFC54
:1036D0000E90A0680BF00CFE39460BF0D7FC0F9053
:1036E00010AA0CA904A807F09BFE14A904A807F0CF
:1036F0002FFE6A4614A910A807F092FE0199084609
:103700000BF086FE0299044608460BF081FE214626
:103710000BF048FCFE49884201DAFE4C0BE0FE4902
:10372000884201DAFD4C06E0FD49884202DA4FF09A
:103730007A5400E0FB4C48460BF0DAFDFA490BF0F6
:10374000A5FC21460BF064FE04460896214602982B
:103750000BF05EFE09900198214680F000400BF0CE
:1037600057FECDE90A066A4604A908A807F058FEE4
:103770006A4600E025E004A9104607F0C4FD68464B
:1037800007F0D5FE1E2100980CF01FF90BF074FD18
:1037900028601E2101980CF018F90BF06DFD68608F
:1037A0001E2102980CF011F90BF066FDA8601E2195
:1037B00003980CF00AF90BF05FFDE86019B0BDE862
:1037C000F08396E80F0085E80F00F7E72DE9F05F3A
:1037D00005460C4680680BF08BFD01460BF018FE89
:1037E000074668680BF084FD01460BF011FE0646A3
:1037F00028680BF07DFD01460BF00AFE31460BF008
:10380000D1FB39460BF0CEFB0AF0EAFB4FF07E59B4
:10381000002706464FF08048484505DCC4E900878C
:10382000A760E760BDE8F09FA8680BF061FD314636
:103830000BF02CFC8246014648460BF0A9FF4FF4E2
:103840000006B04200DA00204FF0FF310CF0BDF866
:103850000AF0C6FB8346494650460BF0A3FBB04234
:1038600000DA00204FF0FF310CF0AFF80AF0B8FB9F
:10387000824668680BF03CFD01460BF0C9FD064628
:1038800028680BF035FD01460BF0C2FD31460BF008
:1038900089FB0AF0A5FB06464845BFDD1E215046C0
:1038A0000CF093F80BF0E8FC206068680BF020FD4A
:1038B00031460BF0EBFB59460BF0AAFD1E210CF034
:1038C00084F80BF0D9FC606028680BF011FD3146DC
:1038D0000BF0DCFB59460BF09BFD94490BF098FD77
:1038E0000BF0CAFCC4E902079CE72DE9F04105464C
:1038F0000C46C0680BF0FCFC01460BF089FD8046CD
:10390000A8680BF0F5FC01460BF082FD07466868DD
:103910000BF0EEFC01460BF07BFD064628680BF031
:10392000E7FC01460BF074FD31460BF03BFB3946DA
:103930000BF038FB41460BF035FBB0F5000F06DA13
:103940004FF08040206000206060A0602DE00AF011
:1039500047FB01464FF07E500BF098FB1E210CF008
:1039600034F8064628680BF0C3FC31460BF050FDD6
:103970000BF082FC206068680BF0BAFC31460BF05B
:1039800047FD0BF079FC6060A8680BF0B1FC314694
:103990000BF03EFD0BF070FCA060E8680BF0A8FC9B
:1039A00031460BF035FD0BF067FCE060BDE8F081BF
:1039B00070B5044690F8300088B0400676D5A0690E
:1039C000002801DB014600E041424FF4803200262E
:1039D000574D91420BDAE169002900DA49429142E0
:1039E00005DA216A002900DA4942914260DB0028A9
:1039F00000DA40424FF4C80188420BDCE06900283D
:103A000000DA4042884205DC206A002800DA4042A1
:103A1000884201DD032000E00220A863696BA06AF0
:103A2000814219D06863A06A0BF062FC41490BF037
:103A30002DFB1D210BF0C9FF0BF088FA3E4A3F4BCE
:103A40000AF074FF08220BF092FF00223C4B0AF0B0
:103A500043FD0AF0D5FE28630496296BA06907F0A0
:103A60002CFC0590296BE06907F027FC0690296B78
:103A7000206A07F022FC07906A4604A92C4807F048
:103A800076FC00982A4A80010090019869468001DE
:103A900001900298800102900398800103901046E3
:103AA00007F01FFC22490846FFF71FFF08B070BD52
:103AB000AE63FBE72DE9F0430446D0F820018FB058
:103AC00041067CD51A4DD4F810111E4B2A68891A6C
:103AD000D4F82C215A438A4201DA032100E0022162
:103AE000A963810504F58870804601D51049D4E0AA
:103AF000002104A807F0D0F80D490C223C3104A89D
:103B000001F028FC08BBD4F82801A96D88421BE00D
:103B100017B75139A69BC43B0AD7233C8FC2753DCA
:103B2000CDCC4C3ECDCCCC3E0014CD47000080CE59
:103B30005411002000247449112D4454FB210940E4
:103B40000080664071981C007ED0208807AB80B250
:103B500004AA616A06F07FFE09980BF0C9FB0146D2
:103B60000BF056FC074608980BF0C2FB01460BF021
:103B70004FFC064607980BF0BBFB01460BF048FCD8
:103B800031460BF00FFA39460BF00CFA0AF028FA1E
:103B90000646E8490BF03CFCE7490BF077FA6FF07A
:103BA0000F010BF012FF0746D4F828010BF0A0FB21
:103BB00039460BF02DFCE1490BF068FA00E06EE0AD
:103BC0004FF0FF310BF001FF074604F0F1FF814693
:103BD00038460AF01BF907464FF08040864204DA67
:103BE000A8640020E864286533E01E2148460BF0F5
:103BF000ECFE0BF041FBA86407980BF079FB8146C3
:103C0000CF4938460BF004FC074649460BF000FC50
:103C100031460BF03BFA0BF02FFBE86408980BF0F1
:103C200067FB014638460BF0F3FB31460BF02EFAEA
:103C30000BF022FB286509980BF05AFB0146384629
:103C40000BF0E6FB314600E00EE00BF01FFA0BF044
:103C500013FB04AB686593E8070005F13C0383E8B8
:103C60000700D4F82801A8656A46B649404607F01F
:103C70007EFBB4480AAA14306946044607F077FB75
:103C80002146404607F058FBAE486A460AA9483824
:103C900007F06DFBAB4968464839FFF726FE0FB0C9
:103CA0008DE51FB50446A7486946483807F044FB30
:103CB000A44A6946283A204607F059FBA1491DCC81
:103CC000383981E81D001FBD2DE9F0479D4E04469F
:103CD000483E90F8740006F15C0A06F120080125C0
:103CE00000F05001103692B004F5887904F15C07B9
:103CF000402906D094F8200100F0500040280DD053
:103D00001EE031463846FFF761FDB4F82001C005DA
:103D10000CD55146484607F00FFB07E05146484690
:103D200007F00AFBB4F87400C00509D58548694658
:103D3000483807F001FB42466946304607F017FB5A
:103D4000B4F82001C005204602D5FFF7B3FE01E01C
:103D5000FFF72EFE7B4932464839404607F007FB05
:103D600094F87400400671D5208EB4F820110843F1
:103D7000C00578D50FAA3946304607F0D8FCD4E9FB
:103D8000172080FB0001C2FB0201626E6D4FC2FB77
:103D90000201483F4FF08042801A71F1020014DBAB
:103DA00004A806F0EBFFDDE9042080FB0001C2FB64
:103DB0000201069AC2FB02014FF08042801A71F1A3
:103DC000020002DB0420B8630BE0B86B042808D0C3
:103DD00041F28832022806D0032804D001283AD0C4
:103DE00009E0002507E0E16E91FBF2F5012D00DA14
:103DF0000125032800D0AD00534800244543109806
:103E000007948002294607F058FA08900F9829462F
:103E10004042800207F051FACDE909040BAA31466D
:103E200007A807F0A4FA32460BA9104607F059FA82
:103E300031460846FFF759FD42486946483807F0C1
:103E40007BFA42466946304607F091FA12B00020EC
:103E5000BDE8F08707E0E06E90FBF2F0012800DAA1
:103E600001204500C7E7334619463846E26EFFF7A2
:103E7000D7FBE1E770B50446008EC105D4F82001F8
:103E800007D4B4F87410C90503D4C10501D40020C7
:103E900070BDC0F30120032808D02046FFF714FFAF
:103EA0002848A16B383808F059F8F0E704F5887114
:103EB00024482EC9383880E82E00F1E7234808F05E
:103EC0005FB8204810B56C21483801F04DFB1D4803
:103ED0004FF080414838016101600162C163C165F2
:103EE000002010BD1D4810B5082219A1006801F07E
:103EF00031FA08B1322010BD1322BDE81040C821AC
:103F0000124807F0A3BC10B5FFF7DBFF002805D16E
:103F1000AFF22F00BDE8104007F05CBD10BD10B53A
:103F20000A4808F02DF8AFF24300BDE8104008F051
:103F300059B80000DB0F49400000344300247449A5
:103F4000000080CE9C110020A69BC400753E000896
:103F5000654D504C20352E31000000009C000020A3
:103F600010B5FE4BFE4AFF4C002002EB8001401CC6
:103F7000C0B2CC620B620328F7D310BD70B5F84E07
:103F8000002506EB8504D4F8B410206A0BF00CFA77
:103F900002D2D4F8B4002062D4F8B410E06A0BF076
:103FA00003FB02D2D4F8B400E0626D1CEDB2032D25
:103FB000E7D370BD3EB50B46B0F848100904009138
:103FC000B0F84A10009A09040191B0F84C100904A5
:103FD0000291E3494C6E121B0092019A8C6E121BE7
:103FE0000192029AC96E511A0291816EB0F8440092
:103FF0006A4680B206F02FFC3EBDF0B5D84F0024D3
:104000002546D7F894208DB02E46012A01D1C7F855
:10401000946009A9FFF7CEFF05A806F0FFFD0599FA
:1040200009986022A0EBA130099006990A98A0EBAC
:10403000A1300A9007990B98A0EBA130CA490B90C8
:10404000081F01F02AFA0DF1240CC7489CE80E0065
:10405000143080E80E00684606F090FEC2496022E7
:104060006C31081F01F019FABF489DE80E0080303E
:1040700080E80E0000210922D7F82C04401CC7F864
:104080002C0401EB410007EB8000DDF800C0D0F804
:104090004C33491C93FBF2F31C44D0F850330929EC
:1040A00093FBF2F31D44D0F8543393FBF2F31E4418
:1040B000D0F8B83393FBF2F363440093D0F8BC33E9
:1040C000DDF804C093FBF2F363440193D0F8C0031E
:1040D000029B90FBF2F018440290CDDB002C00DA3A
:1040E0006442002D00DA6D42002E00DA764200981C
:1040F000002800DA404200900198002800DA40428F
:1041000001900298002800DA4042029000990020B5
:104110008C4200DA012001998D4200DA401C02999C
:104120008E4200DA401CD7F82C14092900DB401C11
:1041300004280DD197F8240402280BD90146884899
:10414000D7F82824643007F0C1FC012007F0B8FC40
:104150000DB0F0BD07F0A2FCFAE72DE9F047804D65
:104160000027DFF8088285F82474DFF80492DFF86E
:1041700004A206463C46C5F8287405EB8400E96BAA
:10418000D0F8CC000BF010FA18D8D5E914010022B1
:1041900053460AF0F1FD21F0004142464B460AF039
:1041A00089FB0BD295F82404401C85F824040120D7
:1041B000D5F82814A0400143C5F82814641CE4B2C3
:1041C000032CDAD395F8240480B3002406EBC40052
:1041D000D0E9002110460AF013FB05EB8401641CB2
:1041E000E4B24866032CF1D3C5F82C74A8680428FF
:1041F00002DA95F82404A86095F82404032815D160
:104200005D49E868884211DCD5E914010022534673
:104210000AF0B2FD21F0004142464B460AF04AFB4B
:1042200004D2A868032801D10420A8605349286952
:10423000884215DA5249E868884211DCD5E9140150
:10424000002253460AF098FD21F000414D4A4E4BA2
:104250000AF030FB04D2A868042801D10520A86028
:10426000BDE8F0872DE9F0413D4C0746D4F8A404A1
:10427000012803D000252846BDE8F08143494FF0CE
:104280007E52A1F1E80013460646FCF74DF9344A88
:104290003046503202F5AC71FCF752FB0500EAD013
:1042A0006068401C6060D4E914010AF0A9FAB96E94
:1042B00007F003F80BF01CF86FF00F010BF085FB13
:1042C0000AF044FEC4E91401D4E96A010AF098FA3C
:1042D000A065D4E96C010AF093FAE065D4E96E01B7
:1042E0000AF08EFA2066D4E968010022284B0AF011
:1042F0001BFCC0D2274A314613460846FCF714F986
:10430000B9E72DE9F04104460025D4E9030101266F
:1043100002270BF049F910D26169E0680BF044F90B
:104320000BD22564D4E904010BF03EF902D8C4E9AC
:104330001167A1E7C4E911769EE7D4E903100BF0F9
:1043400033F92FD2D4E904010BF02EF92AD22664D6
:104350006169E0680BF028F921D81DE000401CC617
:10436000C011002000401C46101500209A99999910
:104370009999B93F0000F03FAE47E13D00007A4314
:10438000BC74933C9CC420B07268913F8813002099
:104390000070A740CDCCCC3EC4E911576CE7C4E90E
:1043A000117569E72764D4E903010BF0FDF802D821
:1043B000C4E9115660E7C4E911655DE700221146C2
:1043C000C26440F8212000EB8103491C5A62032992
:1043D000F7DB0121C0E91D12704730B504461420F7
:1043E000A0650A202066002584F870502046FFF75B
:1043F000E5FF656530BD2DE9F04387B06946FFF7FD
:10440000D9FD00252E462C46E8466FF00F0903AF74
:1044100058F824000AF06CFF49460BF0D6FA47F82A
:10442000240001460AF0F4FF0AF090FD2A463346C4
:1044300009F096FF641C05460E46032CE8DB09F0E4
:10444000A9FDDFF8B48505460E460024B94659F8A3
:1044500024000AF07BFD2A4633460AF03DF809F0B5
:104460004DFF08EB8407D7F830140AF09BFD641C5D
:10447000C7F83004032CEADBD8F88414491CC8F8C8
:1044800084140121C8F8AC1407B0BDE8F0832DE90D
:10449000F04186B0054604AA03A9684606F020FE4E
:1044A000002637463446E84658F8240001460AF00C
:1044B000AFFF0AF04BFD32463B4609F051FF641C4A
:1044C00006460F46032CEFDB09F064FD06460F4657
:1044D000002458F824000AF039FD32463B4609F022
:1044E000FBFF09F00BFF55F824100AF05BFD45F8BF
:1044F0002400641C032CECDB686D401C6865012003
:10450000E86706B0B8E62DE9F05F0025DFF8ECA417
:1045100004464FF07E5BA846206D0AF0E9FE014696
:1045200054F825000AF0B2FD04EB85060746B16990
:10453000514501D381F00041574501D2384601E091
:1045400087F000400BF024F9B7613063D4F83C9059
:10455000594648460BF01CF9716A0AF059FF394672
:104560000AF020FD49460AF091FD7062504501D3E2
:1045700080F00040F06044F825806D1C032DCBDBFB
:104580002046FFF7BEFEE06CB0F57A7F01DA401CF2
:10459000E06494F87010042603270125206C4FF086
:1045A000050A06290AD2DFE801F0030B142A4E326D
:1045B0006567C4F84C80A56784F87050BDE8F09F2B
:1045C000E06F0128FAD1022084F87000C4F87880E6
:1045D000F4E704EB8009616ED9F80C000AF0E4FFFF
:1045E00003D884F8706040462AE0A16ED9F80C0028
:1045F0000AF0DAFE2ED81BE06567A567DEE704EB5C
:104600008000616EC0680AF0CFFFD7D8E9E704EBFD
:104610008009A16ED9F80C000AF0C6FE08D9F84945
:10462000D9F83000884206D9216EE06C8842C5DB9B
:1046300084F87070E0E784F870604046C4F84C80FD
:104640006067A067BAE704EB8000E16EC0680AF01B
:10465000ABFEB3D884F870A0C4F84C80CCE710B59A
:1046600004460AF045FEE7490AF0D2FEE6490AF0A0
:104670000DFD4FF0FF310BF0A8F90AF067FC04F0D4
:1046800049FA1E220BF073F90AF0BAF8DA49C1E9C7
:10469000204010BD2DE9F04F91B000250446009553
:1046A00001950295C06E44F62061D34E884206DB28
:1046B000D6F88010884210D0FFF7D1FF0DE0D6F871
:1046C00048231044C6F8480388427DDBE16E8142EE
:1046D00001D0FFF7C4FFC6F84853206BC6F8B004FA
:1046E0002046FFF788FE06F5906003C8814204DB90
:1046F000C648FFF708FFC6F88454D6F8A804012876
:1047000002D12046FFF779FCD6F8A40401285BD13A
:10471000684606F051FB029908460AF079FE0199B5
:10472000804608460AF074FE0099074608460AF0DB
:104730006FFE39460AF036FC41460AF033FC09F0B8
:104740004FFC0E21F0600BF040F90AF095FDADF83A
:104750001C00AF49A946ADF81E50ADF8205007A87F
:104760000991FDF789FE03A806F062FB316F0398FB
:1047700006F0A3FD0546716F049806F09EFD054402
:10478000B16F059806F099FD0544F16F069806F0A3
:1047900094FD05EB000803AF002597E80F0006F134
:1047A00070070DF1340A87E80F000DF1280B04EBB8
:1047B0004507A16E37F8480F000406F07EFD4AF861
:1047C00025000AF095FD00E098E06FF00F010BF076
:1047D000FCF806EB85014861388801044BF8251088
:1047E0006D1CEDB2032DE2D389480AA9E8380746CB
:1047F000FBF72DFFD6F82813306881427EDBD4F812
:10480000E4000AF075FD6FF00F010BF0DEF8D6F84A
:10481000D810054611F0FF4F06D028460AF0B8FF21
:1048200020F00040C6F8DC00C6F8D850B068062872
:1048300011D2DFE800F0030303030A1A7548B063DE
:104840004FF07E50F063C82004E07348B0637348B3
:10485000F06364203064208EC00509980BD4FDF706
:104860001FFD0AF060FD68490AE06D48B0636D48BD
:10487000F0633220EEE7FDF774FC0AF054FD6A495C
:104880000AF004FC30619821099800F06DFED6F81A
:10489000841041453BDA3069B0F5000F37DBB16B6E
:1048A0000AF082FD33D2316C7068884205DA204606
:1048B000FFF7D8FC002852D00BE05C49D6F8B000D6
:1048C000884206DB2046FFF7CDFC002847D0C6F81B
:1048D0000490002006EB8001401C4A69C0B2C1F878
:1048E000B4200328F6D3FFF749FB002406EB840528
:1048F000E96A286A0AF04CFF641C00E02EE0E4B28A
:10490000C5F8CC00032CF1D34948FFF726FC00245E
:1049100006EB84056969D5F898000AF039FF641C34
:1049200020F00040E4B2C5F8A400032CF0D3F6E96F
:1049300029010AF037FBB1680AF034FBF06000206F
:10494000A43E06EB8001401C4A69C0B2C1F8982021
:104950000328F6D3E821384600F006FE002011B007
:10496000BDE8F08F10B54FF49761234800F0FCFDCF
:10497000214C0A20206040072067FFF7F1FA234806
:10498000FFF72BFD2068C4F880044FF08440C4F882
:104990006C041E20C4F88C042648C4F898042648E9
:1049A000C4F894042548C4F89C041920FEF711F8B3
:1049B000002010BD012240F25231AFF2273006F044
:1049C00045BFAFF22F3007F0DBBA10B5FFF7CAFFD3
:1049D000002805D1AFF22300BDE8104006F0FABF71
:1049E00010BD10B5AFF2533007F0CAFAAFF23B007A
:1049F000BDE8104007F0F6BAC0110020000080802A
:104A0000CDCC4CBD368D274000247449F0150020D4
:104A1000701400200080BB44000096439A99993F8F
:104A2000000070423333B33F0050C347CDCC4C3D00
:104A300068130020CDCCCC3ECDCC4C3F3333333F3C
:104A40000148806870470000C0110020002803DD85
:104A5000FE490122C1E920020020704710B5B821AB
:104A6000FA4800F081FDF948F949C160F9498160CF
:104A7000F9490160F94941604FF0804141664FF4C6
:104A8000FA61C167F649C0F89C10002010BD2DE9FD
:104A9000F041EE4C0E460746002521680AF084FDE1
:104AA00011D3384661680AF07FFC0CD320690128D5
:104AB00013D13046E1680AF077FD04D33046A1688F
:104AC0000AF072FC09D2606F20B9E048A16D18307D
:104AD00007F084F80120C4E91D05D4E91E018842CD
:104AE00004DB606F012800D1E5656567BDE8F081F2
:104AF00070B50C46054606F033F8D44A002110B9CB
:104B0000D848854202DD1161516102E01069002838
:104B100008D1506920445061B0F5FA7F02DD0120D0
:104B2000C2E9040170BDF0B58DB00D4614460646CD
:104B3000694606F01DFE09AA3146284606F017FC14
:104B40002946304606F0F8FB0021EC460DF1240E14
:104B500000231A46184601EB41073D180EEB80066C
:104B60005CF825507668401CC5FB06320328F4DB50
:104B7000980F40EA820044F82100491C0329E7DB32
:104B80000DB0F0BDB1490020C1F88C00704770B580
:104B9000044680680AF0ACFB01460AF039FC054681
:104BA00060680AF0A5FB01460AF032FC0646206860
:104BB0000AF09EFB01460AF02BFC31460AF0F2F99E
:104BC00029460AF0EFF909F00BFABDE870406FF0E2
:104BD0000F010AF0FABE70B50E4600259B4C01216C
:104BE00030B101280CD0C4F8981044F88C5F29E04B
:104BF000C4F8A060C4E92965E4E92415A56070BD86
:104C00003046D4F8A0100AF0C3FD20F00040D4F8DC
:104C10009C100AF0C9FB13D254F8945F31466D1C06
:104C2000256020690AF0BEF92061943C312DE6DD53
:104C3000022144F8901F8C490AF028FAA06170BD47
:104C400044F8905F656070BD2DE9FF4F8BB0002682
:104C50007E4C0546039604960596D4F88800934644
:104C6000374600287ED006F039F810B103A806F0C8
:104C700005F8D4F88000A146002819DD01204C4633
:104C8000C9F8840006F02AF848B103A806F02EF807
:104C90008009B0F5C87F02D2D4F8800004E0D4F8CF
:104CA0008000401BC4F88000002801DCC4F8847038
:104CB00006F046FA002855D000240E9850F824003B
:104CC0000AF016FB82465BF824000AF011FB6FF035
:104CD0000F0841460AF079FE51460AF099FB414619
:104CE0000AF073FE31460AF05DF9641C0646032C97
:104CF000E3DB5846FFF74BFF0146069030460AF0CB
:104D0000C5F94FF07E58DFF864A1404501DD40460B
:104D100002E0504500D9504603F076FC8346D9F8AE
:104D20008C004E4670B1316806980AF03DFB09D2FE
:104D3000716806980AF038FC04D25946D6F89000FB
:104D4000FFF749FF684606F053F840490C22AC31A2
:104D5000684600F0FFFA18B9D6F8980001286CD11F
:104D60003A4800E0C6E09DE80E00AC3080E80E0056
:104D7000009818B9019808B9029858B36846FFF727
:104D800006FF044610F0FF4F57D0DFF8E4902046AE
:104D900049460AF0FDFC01460AF03AFB09F020F909
:104DA0007060494620460AF0FDF801460AF030FBE3
:104DB00009F016F9306002980AF09AFA6FF00F01C4
:104DC0000AF003FE21460AF061F9044640451FDD62
:104DD000444620E02048306020487060D6F89800B3
:104DE000012804D01B48B0601948F06025E0D6F8CF
:104DF0009C80D6F8A840414620460AF0C9FCB06025
:104E0000414620460AF0CEF8C6F89870F06014E0EB
:104E1000544500D95446204603F0F6FBD6F89C10C2
:104E20000AF0B6FCB060204603F0EEFBD6F89C100A
:104E30000AF0B8F8C6F88C70F060DFF81080F16DF9
:104E400008F1580801BB0120002413E07816002067
:104E50000000B4420000B4C2000070420000F04103
:104E60007B142E3E00401C4600004842000080BFDC
:104E700000002041F06506EB04104146183005F0B3
:104E8000A5FE641C042CF6DB434907AA0C460C98CB
:104E9000FFF749FE21460C9806F04EFA03A805F0EC
:104EA00025FF0AF06DFA6FF005010AF08EFD294624
:104EB000FFF71EFE59460698FFF7E9FDD6E91E01E9
:104EC000884201DA2844B067706F90B9306E284488
:104ED0003066B0F57A7F0CDD2F4930223C39A1F1E4
:104EE0001000376600F0D9FA2B4841461C3805F00F
:104EF0006DFE706F0FB0BDE8F08F70B588B00446DE
:104F000004A805F08BFED4E93001451A684605F087
:104F10001BFE064604AB04F1A00269462846FFF7D3
:104F200093FE06F06DFE08B0304670BD04224FF4CB
:104F30009671AFF2390006F089BCAFF2410007F07C
:104F40001FB810B5FFF78AFD00280DD112480021C7
:104F50006438C0F88C100121C0F88810AFF233001B
:104F6000BDE8104006F036BD10BD10B5AFF27500BB
:104F700007F006F8AFF27D00BDE8104007F000B87A
:104F8000054901206439C1F88C00002070470248AF
:104F90006438406F70470000DC1600207047B2F1A3
:104FA00020030AD5C2F1200301FA02F120FA03F32B
:104FB00000FA02F041EA0301704700FA03F14FF0F2
:104FC00000007047B2F120030AD5C2F1200320FA95
:104FD00002F001FA03F341FA02F140EA03007047DC
:104FE00041FA03F04FEAE171704710B54C1084EAC2
:104FF000530404D54042C1F1000138BF491E1B4291
:1050000004D55242C3F1000338BF5B1E00F0D7FA4B
:1050100014F0804F04D04042C1F1000138BF491E56
:1050200014F0004F04D05242C3F1000338BF5B1E9E
:1050300010BD00001CB50C46064B7B446946009031
:10504000204600F0FAFD04460020694600F008FE04
:1050500020461CBD230C00000FB4044910B503AA60
:10506000029800F003FE10BC5DF814FB480000201D
:1050700070B5044685690068C10601D5302600E098
:105080002026C00707D070BDD4E9012130469047E3
:10509000206A401C20626D1EF6D570BD70B50446B6
:1050A00085690078C00707D170BDD4E901212020AF
:1050B0009047206A401C20626D1EF6D570BD00002E
:1050C0002DE9F0410646002410687529314616A5E1
:1050D00010D000F0F6FA002802DA404213A507E0EB
:1050E00031688A0701D512A502E0490704D511A548
:1050F000012401E000F0EEFA00210A2206F1240763
:1051000009E0B0FBF2FCB0FBF2F302FB1C00303014
:1051100078541846491C0028F3D123462A463046C5
:10512000BDE8F04100F008BB000000002D000000C9
:105130002B00000020000000F0B40D460188090596
:1051400002D5214C7C4402E01F4C7C440E340021EB
:1051500000F1240608E002F00F071209E75D42EAB9
:1051600003721B097754491C52EA0307F3D10278F2
:105170000023120704D5702D06D009B10223113483
:105180002246F0BC00F0D8BA01231034F8E770B51D
:1051900004460D462146106800F09CFA0246294656
:1051A0002046BDE870400023C6E7D21D22F0070369
:1051B000D3E90023C0E70368126843F020030360CB
:1051C0000823C3610023B7E791B700002DE9F05F22
:1051D000894604464FF0000ADFF874B1FB44C0F87A
:1051E00020A02046E1688847002874D0252806D0F2
:1051F000D4E901219047206A401C2062F1E7002693
:105200005F462046E16888472028054607DB312DA8
:1052100005D2781910F8200C08B10643F1E7B00761
:1052200001D526F00406C4F81CA00027C4F818A075
:105230002A2D09D0284602F03FFF38B304EB870837
:10524000303DC8F8185019E059F8041B204604EB0B
:1052500087029161E1688847012F054618D1E0690E
:10526000002820DA26F020061DE0D8F8180000EB10
:10527000800005EB40003038C8F818002046E1688F
:105280008847054602F018FF0028EED1012F0AD00A
:105290002E2D08D12046E16888477F1C0546022F45
:1052A00046F02006C4DBA069002803DA404246F03D
:1052B0000106A061F00701D026F010066C2D0BD07E
:1052C000682D09D04C2D39D06A2D35D0742D35D0AC
:1052D0007A2D33D016E038E0E1682F462046884723
:1052E000B842054609D16C2F26D04FF48060E168A2
:1052F000064320468847054604E06C2F1AD04FF439
:10530000807006430DB3A5F14100192802D820355D
:1053100046F400664A462946204626604E46FAF77D
:1053200041FF80B101280BD0F61D26F0070000F1E7
:10533000080956E74020E4E78020D8E70020D6E7B8
:1053400006F104094DE7284652E7206ABDE8F09FC0
:1053500021B7000040EA010310B59B070FD1042AD2
:105360000DD310C808C9121F9C42F8D020BA19BA30
:10537000884201D9012010BD4FF0FF3010BD1AB195
:10538000D30703D0521C07E0002010BD10F8013BEA
:1053900011F8014B1B1B07D110F8013B11F8014B11
:1053A0001B1B01D1921EF1D1184610BD032A40F2F9
:1053B000308010F0030C00F0158011F8013BBCF1B7
:1053C000020F624498BF11F801CB00F8013B38BFCF
:1053D00011F8013BA2F1040298BF00F801CB38BFDD
:1053E00000F8013B11F0030300F02580083AC0F0FB
:1053F000088051F8043B083A51F804CBA0E80810A3
:10540000F5E7121D5CBF51F8043B40F8043BAFF3D5
:105410000080D20724BF11F8013B11F801CB48BF2F
:1054200011F8012B24BF00F8013B00F801CB48BF65
:1054300000F8012B704710B5203AC0F00B80B1E89E
:105440001850203AA0E81850B1E81850A0E81850B9
:10545000BFF4F5AF5FEA027C24BFB1E81850A0E8C2
:10546000185044BF18C918C0BDE810405FEA827CDC
:1054700024BF51F8043B40F8043B08BF7047D207F3
:1054800028BF31F8023B48BF11F8012B28BF20F894
:10549000023B48BF00F8012B7047431A28BF9A42CD
:1054A0007FF6C9AF104410F0030F11441EBF11F86E
:1054B000013D521E00F8013D10F0030F7FF4F6AFDE
:1054C000103AC0F00A8010B531E91850103A20E9BE
:1054D0001850BFF4F9AFBDE81040530724BF31E9BD
:1054E000081020E9081044BF51F8043D40F8043D7D
:1054F00012F0030F08BF7047D20728BF31F8023DF2
:1055000048BF11F8012C28BF20F8023D48BF00F821
:10551000012C704702F0FF0343EA032242EA0242F1
:1055200000F002B84FF000020429C0F0128010F021
:10553000030C00F01B80CCF1040CBCF1020F18BF6F
:1055400000F8012BA8BF20F8022BA1EB0C0100F002
:105550000DB85FEAC17C24BF00F8012B00F8012BD5
:1055600048BF00F8012B70474FF0000200B513460A
:1055700094469646203922BFA0E80C50A0E80C5073
:10558000B1F12001BFF4F7AF090728BFA0E80C5024
:1055900048BF0CC05DF804EB890028BF40F8042B1D
:1055A00008BF704748BF20F8022B11F0804F18BF8A
:1055B00000F8012B7047704770477047704753EAF7
:1055C000020C00F069802DE9F04B4FF00006002B33
:1055D0001FBFB3FA83F503FA05F424FA05F65E401B
:1055E00012BF1643B2FA82F502FA05F4C5F120059E
:1055F0001EBF22FA05FC44EA0C04203556EA044C8E
:105600004FEA144418BF641C4FF000084FF0000923
:10561000904271EB030C39D3002919BFB1FA81F71D
:1056200001FA07F6B0FA80F700FA07F6C7F120078B
:105630001EBF20FA07FC46EA0C062037B6FBF4FC36
:10564000A7EB0507103F07F01F0BCBF120060CFA64
:105650000BFB2CFA06F644BFB3460026202FA4BF4E
:105660005E464FF0000B5BEA060C08BF4FF0010BE3
:1056700019EB0B09ABFB027C48EB0608C01B06FBD1
:1056800002CC0BFB03CC71EB0C01C1E70B460246CD
:1056900041464846BDE8F08B13B54FF000004FF08F
:1056A0000001AFF30080BDE81C40704710B500F06A
:1056B000C7FB006810BD10B5044600F0C1FB0460D4
:1056C00010BD09684A0501D540B27047C905FCD52F
:1056D00000B2704709684A0501D5C0B27047C905D4
:1056E000FCD580B2704770B50C460546012A05D03E
:1056F0002878800600D5EA69002302E0012305E04E
:105700005B1C934202D2E05C0028F9D1A869E6183C
:10571000C01AA861286A184428622846FFF7A8FC26
:1057200004E0D5E9012114F8010B9047B442F8D305
:105730002846FFF7B3FC70BD2DE9F0470D469946AA
:105740009246044600F124080168880604D5E06901
:1057500021F01001216000E00120A84201DD471B7B
:1057600000E00027A1697A1902EB0900081AA0617C
:105770002078C00602D42046FFF77AFC002608E015
:10578000D4E901211AF806009047206A401C761CD3
:1057900020624E45F4DB2078C0060AD52046FFF78C
:1057A00067FC06E0D4E9012130209047206A401CC4
:1057B0002062381EA7F10107F4DC07E0D4E90121DB
:1057C00018F805009047206A401C2062281EA5F1A9
:1057D0000105F3DC2046FFF761FC2078000602D5C6
:1057E0000220BDE8F0870120FBE711680268006A2B
:1057F000530501D508700AE0D30501D5088006E0FD
:10580000130603D5C217C1E9000200E008600120B9
:10581000704770472DE9FF4F0C461E464FF0FF378B
:105820008BB0D2E90001DDF860800A908A46C1F3AE
:105830000A5505B93D46002108464FF00000BAF16F
:10584000000F00F4400005DA00EB80004FF4400147
:1058500001EA50004FEA9059B9F1010F00DDB94655
:105860000A9850EA4A000ED044F61050A5F2FF35CF
:1058700045432F14B8F1000F1ED07542291E1EDDBE
:10588000C9F100021CE0B8F1010F4FF0000001D097
:10589000302103E0F24305E02154401CB042FBDB21
:1058A00030460022002121540B99C1F80880C1E93B
:1058B00000200FB0BDE8F08FBD1B6D1CDEE74A462F
:1058C00000DA694206A800F0EFFC06AB93E8070097
:1058D00003AB83E8070050460A9900F0F7FD8DE816
:1058E0000700A0F500501F3800900398002D0ADD36
:1058F00042F21F014A460844002303A90390684668
:1059000001F060F809E0A0F500504A461F38002376
:1059100003A90390684601F06AF88DE807000004C7
:10592000000C03D04FF0FF30410800E01046B8F102
:10593000000F03D00022009215461EE0751E05D40C
:1059400000F082FA303262556D1EF9D5B34601225D
:10595000084302D000227F1C04E02078302801D1C7
:1059600000227F1E002A099784D01DE0112D07DA3E
:1059700000F06AFA303262556D1C50EA0102F5D12E
:10598000084302D00098C8B10EE00021681E05E06F
:10599000235C625C63542254401E491C8142F7DB45
:1059A000AB46A81B401E0990002004F80B000B9882
:1059B000099AC0F80880C0E9002B7AE711264FF059
:1059C000000857E72DE9F04F88460446D21D22F023
:1059D000070191B0D1E90001CDE90A0101F041FFD1
:1059E00002460B98C00F01D02D2007E020688107E8
:1059F00001D52B2002E0202101EAC000032A0990F2
:105A000001D0072A05DB03464146204600F0E0FBB3
:105A10000BE12078800601D5E06900E00620B8F1AE
:105A2000650F814606D0B8F1660F18D0B8F1670F40
:105A300070D131E00020B9F1110F009001DB11238A
:105A400001E009F101030AAA01A90CA8FFF7E2FE8F
:105A5000DDE90C70002609F10105834647E00120CD
:105A60004B4600904FF000470AAA01A90CA8FFF787
:105A7000D1FEDDE90DB00C995D46002610B909F1A3
:105A800001000D18B9EB050003D4C0F1FF3609F190
:105A90000105A5EB09002BE0B9F1010F01DA4FF088
:105AA00001090020B9F1110F0090484601DD1123D2
:105AB00000E003460AAA01A90CA8FFF7ABFEDDE946
:105AC0000C704D4600268346207800070AD4AB456B
:105AD00000DA5D4601A8012D04DD411911F8011C11
