:020000040800F2
:10000000001E00207902000801720008296E000815
:100010009D7100085D6C0008AD81000800000000C3
:1000200000000000000000000000000089750008CA
:10003000616C000800000000E573000815770008F7
:10004000930200089302000893020008930200083C
:10005000930200089302000893020008930200082C
:10006000930200089302000893020008930200081C
:10007000930200089302000893020008930200080C
:1000800093020008930200089302000893020008FC
:1000900093020008930200089302000893020008EC
:1000A00093020008930200089302000893020008DC
:1000B00093020008930200089302000893020008CC
:1000C00093020008930200089302000893020008BC
:1000D00093020008857F000893020008930200083D
:1000E000930200089302000893020008930200089C
:1000F000930200089302000893020008930200088C
:100100009302000893020008C97A000893020008CD
:10011000930200089302000893020008930200086B
:10012000930200089302000893020008930200085B
:1001300000F002F800F090F80AA090E8000C824469
:100140008344AAF10107DA4501D100F085F8AFF246
:10015000090EBAE80F0013F0010F18BFFB1A43F0A5
:1001600001031847D0170100F0170100103A24BF0F
:1001700078C878C1FAD8520724BF30C830C144BF0C
:1001800004680C607047000000230024002500264E
:10019000103A28BF78C1FBD8520728BF30C148BFEA
:1001A0000B6070476E2905F02083702905F00380ED
:1001B000662910F0F881652910F0F581672910F0A3
:1001C000F281612910F0F18103681B0A28BF41F018
:1001D0008001692904F07487642904F07187752906
:1001E00004F06E876F2905F01086782904F0CF8718
:1001F000E92905F0AB85E42905F0A885F52905F086
:10020000A585EF2905F00D86F82904F0CE8703684F
:10021000DB0928BF41F08001632906F023807329A0
:1002200006F02880E32906F03380F32906F03880B1
:10023000002070471FB505F0FFFD040000200021DD
:100240000EF098FE401C6060002000210EF07CFE45
:10025000E0601FBD10B510BD06F0C0F81146FFF7F5
:10026000E9FF0CF01FFE06F0E7F803B4FFF7F2FF1A
:1002700003BC08F094FC0000094880470948004787
:10028000FEE7FEE7FEE7FEE7FEE7FEE7FEE7FEE746
:10029000FEE7FEE704480549054A064B70470000A3
:1002A000197700083101000800180020001E002006
:1002B000001A0020001A0020FE49C1F8E80070472B
:1002C0002DE9F04FDFF8ECB30026044685B0174661
:1002D00098468A463546B146DBF8AC000FF011F976
:1002E0003A4643460FF038F97ED3DBF8B0000FF002
:1002F00008F93A4643460FF069FAF5D3B4F900001D
:10030000B4F90610401A0FF0FCF83A4643460FF0D5
:1003100023F900D20126B4F90E00B4F91410401AE2
:100320000FF0EFF83A4643460FF016F900D2761C6C
:10033000B4F91C00B4F92210401A0FF0E2F83A4662
:1003400043460FF009F900D2761CDB4B012E4BDC43
:100350000022384641460FF03BF907460E46B4F9F5
:100360000000B4F90610401A0FF0CBF83A463346B5
:100370000FF02CFA00D20125B4F90E00B4F91410D4
:10038000401A0FF0BEF83A4633460FF01FFA00D27B
:100390006D1C31463E460F46B4F91C00B4F92210DC
:1003A000401A0FF0AEF832463B460FF00FFA00D27B
:1003B0006D1C002D03DD022005B0BDE8F08F002686
:1003C00006EB460004EB80050390B5F90A000FF038
:1003D00098F8DAE9047843463A460FF01FFB834663
:1003E0000091B5F9040000E053E00FF08AF84346AD
:1003F0003A460FF013FB5A46009B0FF0E9F883468C
:100400000291B5F908000FF07CF8DAE9027843466A
:100410003A460FF003FBCDE90001B5F902000FF0F9
:1004200070F843463A460FF0F9FADDE900230FF081
:10043000CFF880460491B5F906000FF062F8DAE9CA
:1004400000572A463B460FF0E9FACDE90001039830
:1004500034F920000FF055F82A463B460FF0DEFA3B
:10046000DDE900230FF0B4F84246049B0EF0CAFD0C
:100470005A46029B0EF0C6FD002213460FF06CF8A0
:1004800001D209F10109761C032E99DBB9F1020FA3
:1004900001DA012090E700208EE788490A684B685E
:1004A000D00180EAD20080EA031048608B685203D2
:1004B00080EAC30382EA5312520282EAD0208B60A0
:1004C0000860704770B50546FFF7E7FF0FF0AAFD1B
:1004D0007B490FF0EFFD6FF01F06314610F0C7F8B3
:1004E00009F0E8FB0446FFF7D8FF0FF09BFD31460B
:1004F00010F0BDF810F0FF4F01D14FF07E500FF01B
:1005000077FB0CF021FB00224FF040430FF060F826
:100510000EF046FD0EF0B6FB29460FF0CBFD21464E
:10052000BDE870400FF0C6BD2DE9FE4F0546904670
:100530000E4618460FF05CFBCDE90010D6E93023DB
:100540000FF046F804460F4640460FF051FB02916B
:10055000F5E9302383460FF03BF822463B460EF088
:1005600051FD65E830010024DDE90010074606EB87
:10057000C40082460CC838460FF02AF805EBC407C1
:100580008046D7E900238946584602990FF020F8A3
:1005900042464B460EF036FDC7E90001DDE900108A
:1005A000DAE924230FF014F8D7E92423804689469A
:1005B000584602990FF00CF842464B460EF022FDC9
:1005C000641CC7E92401062CCEDB0024DDE9001001
:1005D000074606EBC400D0E9122338460EF0F8FFB8
:1005E00005EBC4020746D2E912C388469146584635
:1005F000029962460EF0ECFF3A4643460EF002FDC9
:10060000641CC9E91201092CE0DB0024DDE90010BB
:10061000074606EBC400D0E90C2338460EF0D8FF9D
:1006200005EBC4020746D2E90CC3884691465846FA
:10063000029962460EF0CCFF3A4643460EF0E2FCC9
:10064000641CC9E90C01032CE0DBBDE8FE8F2DE939
:10065000F04F044691B00F4608680EF052FFCDE906
:100660000E0105460E4678680EF04BFF81468A461D
:10067000B8680EF046FF83468846D4E930015F46ED
:100680000022104B0EF0BEFCC4E93001D4E90C018D
:100690002A4633460EF0B6FCC4E90C01D4E90E013B
:1006A0004A4653460EF0AEFCC4E90E0143463A46B4
:1006B0000AE00000800A002000000440140100202D
:1006C000DB0FC9400000F03FD4E910010EF09AFCA6
:1006D000C4E910012A463346284631460EF078FF19
:1006E000CDE90501D4E900230EF08CFCC4E900013A
:1006F0004A465346284631460EF06AFFCDE90001CE
:10070000D4E902230EF07EFCC4E9020143463A46D6
:10071000284631460EF05CFFCDE90301D4E90423FD
:100720000EF070FCC4E904014A465346484651465F
:100730000EF04EFFCDE90701D4E906230EF062FC6E
:10074000C4E9060143463A46484651460EF040FF8A
:10075000D4E908230EF056FCC4E908013A464346A2
:10076000104641460EF034FFD4E90A230EF04AFC4D
:10077000C4E90A01DDE905012A4633460EF028FFE7
:10078000D4E912230EF03EFCC4E91201DDE90001B8
:100790004A4653460EF01CFFD4E914230EF032FCF7
:1007A000C4E91401DDE9030143463A460EF010FFA7
:1007B000D4E916230EF026FCC4E91601DDE9000198
:1007C0002A4633460EF004FFD4E918230EF01AFC33
:1007D000C4E91801DDE9070153464A46CA461F46E7
:1007E000CDE900010EF0F4FECDE90210D4E91A23A0
:1007F0000EF008FCC4E91A015D46434646465A46D7
:10080000504639460EF0E4FE834633462A460491AC
:100810000EF0DEFED4E91C230EF0F4FBC4E91C014B
:10082000DDE90E8399464246314628460EF0D0FE59
:1008300042464B460EF0CCFED4E91E230EF0E2FBFE
:10084000C4E91E01584652463B4604990EF0C0FECC
:10085000D4E920230EF0D6FBC4E920012A46334612
:10086000104631460EF0B4FE33462A460EF0B0FE76
:10087000CDE90601D4E922230EF0C4FBC4E922012C
:1008800042464B46404649460EF0A2FE834642464B
:100890004B460C910EF09CFE42464B460EF098FEE5
:1008A000D4E924230EF0AEFBC4E92401DDE90210F3
:1008B00052463B460EF08CFED4E926230EF0A2FBF6
:1008C000C4E92601DDE9060133462A460EF080FE22
:1008D000D4E928230EF096FBC4E928015846524675
:1008E0003B460C990EF074FE52463B460EF070FEED
:1008F000D4E92A230EF086FBC4E92A015846334680
:100900002A460C990EF064FE33462A460EF060FE2D
:10091000D4E92C230EF076FBC4E92C01DDE90001BB
:1009200033462A460EF054FE33462A460EF050FE59
:10093000D4E92E230EF066FBC4E92E0111B03CE58C
:100940002DE9F74F0446B8B0D4E90C0102460B4636
:10095000CDE904010EF03CFED4E90023CDE90C23DF
:10096000D4E9305607468846284631460EF030FE18
:1009700043463A460FF052F8CDE90201D4E90E01A0
:1009800002460B46CDE91A010EF022FED4E90623F9
:100990000746884628463146CDE910230EF018FE5A
:1009A00043463A460FF03AF8CDE90001D4E9100188
:1009B00002460B46CDE90E010EF00AFED4E90A23E9
:1009C0000746884628463146CDE914230EF000FE3E
:1009D00043463A460FF022F8CDE90801DDE91A2135
:1009E0000B46DDE904010EF0F3FDD4E902230746CE
:1009F0008846284631460EF0EBFD43463A460FF056
:100A00000DF83491DDE90E2182460B46DDE9040143
:100A10000EF0DEFDD4E90423074688462846314619
:100A20000EF0D6FD3A4643460EF0F8FF8946DDE962
:100A30000E2183460B46DDE91A010EF0C9FDD4E90B
:100A4000082307468846284631460EF0C1FD3A463F
:100A500043460EF0E3FF07468846DDE90401DDE981
:100A600014230EF0B5FDCDE90A01D4E9162328467A
:100A700031460EF0ADFDCDE91601DDE90401DDE9F9
:100A800010230EF0A5FDCDE91201D4E91423284668
:100A900031460EF09DFDCDE90601DDE90401DDE9F9
:100AA0000C230EF095FDCDE90401D4E9122328466C
:100AB00031460EF08DFDDDE904230EF0AFFFDDE9D8
:100AC00006230EF09FFADDE912230EF0A7FFDDE901
:100AD00016230EF097FADDE90A230EF09FFF4FF080
:100AE000FF320FF096FDCDE92601DDE91A01DDE9BF
:100AF00014230EF06DFDCDE91601D4E91C23284620
:100B000031460EF065FDCDE91201DDE91A01DDE99E
:100B100010230EF05DFDCDE90A01D4E91A23284621
:100B200031460EF055FDCDE90601DDE91A01DDE99A
:100B30000C230EF04DFDCDE90401D4E9182328461D
:100B400031460EF045FDDDE904230EF067FFDDE9D7
:100B500006230EF057FADDE90A230EF05FFFDDE908
:100B600012230EF04FFADDE916230EF057FF4FF077
:100B7000FF320FF04EFDCDE90401DDE90E01DDE9A4
:100B800014230EF025FDCDE90A01D4E922232846DD
:100B900031460EF01DFD0DF1380CCDE906019CE843
:100BA0000F000EF015FDCDE91001D4E920232846F1
:100BB00031460EF00DFDCDE91201DDE90E01DDE952
:100BC0000C230EF005FDCDE90C01D4E91E232846C7
:100BD00031460EF0FDFCDDE90C230EF01FFFDDE9D0
:100BE00012230EF00FFADDE910230EF017FFDDE9F6
:100BF00006230EF007FADDE90A230EF00FFF4FF08F
:100C0000FF320FF006FD37910546DDE90201DDE90F
:100C100000230EF0DDFCDDE908230EF0D9FCCDE960
:100C20000601DDE902013A4643460EF0D1FC3A46A0
:100C300043460EF0CDFCCDE90A01DDE900015A463C
:100C40004B460EF0C5FC5A464B460EF0C1FCCDE9B2
:100C50000C010122504634990FF0DBFC5A464B46FA
:100C60000EF0B6FC3A4643460EF0B2FC06460E9134
:100C7000DDE908015246349B0EF0AAFC5246349B33
:100C80000EF0A6FC32460E9B0EF0C8FEDDE90C23EA
:100C90000EF0B8F9DDE90A230EF0B4F9DDE9062318
:100CA0000EF0BCFE00221346CDE90C010EF0BEFB97
:100CB0007ED03A464346504634990EF089FC2A4687
:100CC000379B0EF085FCCDE90A01DDE908015246AB
:100CD000349B0EF07DFCCDE92310DDE904230EF0FA
:100CE00077FCCDE90601DDE90001DDE908230EF01E
:100CF0006FFCDDE926230EF06BFCCDE910013A46CE
:100D00004346104619460EF063FCDDE926230EF03B
:100D10005FFCCDE90E01DDE90423384641460EF0C3
:100D200057FC06461291DDE900012A46379B0EF07A
:100D30004FFC3246129B0EF071FE5A464B460EF0A7
:100D400047FCDDE90E230EF05DF9DDE910230EF01E
:100D500065FEDDE906230EF055F9DDE90A230EF004
:100D60005DFECDE912015A464B46504634990EF0CD
:100D70002FFC199106462A46379B0EF029FCCDE937
:100D80000A01DDE92310DDE926230EF021FCCDE97F
:100D90000601DDE90201DDE908230EF019FCDDE9B9
:100DA00004230EF015FC5A464B46CDE90E0100E037
:100DB00006E1104619460EF00BFCDDE904230EF0A7
:100DC00007FCCDE90801DDE92623584649460EF027
:100DD000FFFBCDE91001DDE902012A46379B0EF049
:100DE000F7FBDDE910230EF019FE3A4643460EF0FC
:100DF000EFFBDDE908230EF005F9DDE90E230EF027
:100E00000DFEDDE906230EF0FDF8DDE90A230EF004
:100E100005FECDE90E01DDE90423304619990EF0F7
:100E2000D7FB06460891DDE900015A464B460EF015
:100E3000CFFBDDE926230EF0CBFBCDE90601DDE992
:100E40000201DDE900230EF0C3FB2A46379B0EF0BA
:100E5000BFFBCDE90001349B5246104619460EF007
:100E6000B7FB2A46379B0EF0B3FBDDE926238B4602
:100E70000A90504634990EF0ABFB0DF1080C054674
:100E800089469CE80F000EF0A3FB2A464B460EF065
:100E9000C5FD3A4643460EF09BFB5B460A9A0EF0B0
:100EA000B1F8DDE900230EF0B9FDDDE906230EF00F
:100EB000A9F83246089B0EF0B1FD05460E46DDE965
:100EC0001201DDE90C230EF059F9399A81468A4660
:100ED000C2E90001DDE90E01DDE90C230EF04EF957
:100EE000399A07468846C2E90201DDE90C23284603
:100EF00031460EF043F9399A05460E46C2E904011F
:100F0000D4E910230EF064FB0291D4E90E2383464A
:100F1000384641460EF05CFBCDE90001D4E90C23D4
:100F2000484651460EF054FBDDE900230EF06AF806
:100F30005A46029B0EF066F801220FF06AFB8346C8
:100F40000091D4E90001D4E906230EF05BF8D4E95E
:100F50000A230EF057F85A46009B0EF05FFDD4E9C5
:100F600030230EF00BF9CDE900012A463346104636
:100F700019460EF02DFB04468B463A464346104672
:100F800019460EF025FB05460E464A4653461046C6
:100F900019460EF01DFB2A4633460EF033F85B4629
:100FA00022460EF02FF8DDE900230EF02BF80DF0AD
:100FB00043FE3A9AC2E9000101203BB0BDE8F08F40
:100FC0000020FAE72DE9F34F9DB004461E98D0E9C2
:100FD000006732463B46304639460EF0F9FAD4E90E
:100FE0000C939A464A460EF0F3FA4A4653460EF0E0
:100FF000EFFA05468846D4E9300132463B46CDE952
:1010000008010EF0E5FA32463B46CDE90B010EF041
:10101000DFFAD4E90023CDE906230EF0D9FA2A46F7
:1010200043460EF0FBFC0191DDE906238346304682
:1010300039460EF0CDFA4A4653460EF0C9FA054637
:101040008846DDE90B01D4E912230EF0C1FA5A46B5
:10105000019B0EF0F1FB2A4643460DF0D3FFCDE98C
:1010600000010122304639460FF0D3FA1E9ACDE92D
:101070000201D2E9025398462A460EF0A9FA4A46DE
:1010800053460EF0A5FAD4E90E23CDE904230EF061
:101090009FFA83460A91DDE9080101220FF0B9FAAF
:1010A00032463B46CDE914010EF092FA43462A46F9
:1010B000CDE90F010EF08CFAD4E902230EF088FA84
:1010C000DDE900230DF09EFF5A460A9B0EF0A6FCB8
:1010D000CDE900014A465346304639460EF078FACB
:1010E000CDE90D01D4E906B35A460A930EF070FA21
:1010F00006460F46DDE90B01D4E914230EF068FA29
:10110000DDE900230EF098FB32463B460DF07AFFF6
:10111000CDE90001DDE902011E9AD2E904631F4610
:1011200032460EF055FA4A4653460EF051FAD4E9CB
:101130001023CDE902230EF04BFA81468A46DDE901
:101140000F013B4632460EF043FAD4E904230EF079
:101150003FFADDE900230DF055FF4A4653460EF0F5
:101160005DFCCDE90001DDE90D01D4E90A939A4661
:101170004A460EF02DFACDE90E01DDE90B01D4E966
:1011800016230EF025FADDE900230EF055FBDDE90C
:101190000E230DF037FFCDE90001DDE906016FF008
:1011A00001020FF036FADDE906230EF011FACDE95F
:1011B0000C01DDE908016FF001020FF02AFACDE918
:1011C0000E01D4E924230EF003FADDE900230DF02B
:1011D00019FFDDE90C230EF021FCCDE90001DDE96A
:1011E0000623284641460EF0F3F9DDE904230EF00C
:1011F000EFF9CDE91201DDE908012A4643460EF078
:10120000E7F9CDE90B01D4E918230EF0E1F9DDE9A6
:1012100000230EF011FBDDE912230DF0F3FECDE902
:101220000001DDE906014FF0FF320FF0F2F95A46F6
:10123000CDE916010A9B0EF0CBF9CDE91A01DDE9E3
:1012400008014FF0FF320FF0E4F9CDE91101D4E9C4
:101250002A230EF0BDF9DDE900230DF0D3FEDDE910
:101260001A230EF0DBFBCDE90001DDE90623304651
:1012700039460EF0ADF9DDE902230EF0A9F9CDE90A
:101280001A01DDE9080132463B460EF0A1F9CDE92D
:101290000601D4E91E230EF09BF9DDE900230EF0D0
:1012A000CBFADDE91A230DF0ADFECDE90001DDE951
:1012B00016014A4653460EF08BF9CDE90801DDE9E7
:1012C0001101D4E92C230EF083F9DDE900230DF0A0
:1012D00099FEDDE908230EF0A1FBCDE900012A46C5
:1012E0004346104619460EF073F9DDE904230EF06B
:1012F0006FF9DDE904230EF06BF9CDE91601DDE9A4
:101300000B012A4643460EF063F95A460A9B0EF03B
:101310005FF9DDE900230DF075FEDDE916230EF01F
:101320007DFBCDE900015A46284641460A9B0EF056
:101330004FF9DDE904230EF04BF9CDE91601DDE9A3
:101340000B01D4E91A230EF043F9DDE900230EF076
:1013500073FADDE916230DF055FECDE900010122F7
:10136000284641460FF055F932463B460EF030F91B
:10137000DDE904230EF02CF9DDE902230EF028F953
:10138000CDE90801DDE914012A4643460EF020F9B3
:1013900032463B460EF01CF9D4E908230EF018F94A
:1013A000DDE900230DF02EFEDDE908230EF036FB0B
:1013B000CDE90001DDE90423284641460EF008F995
:1013C0004A4653460EF004F980460D46DDE90B010E
:1013D000D4E91C230EF0FCF8DDE900230EF02CFA12
:1013E00042462B460DF00EFE054601916FF00102BC
:1013F00058460A990FF00DF95A460A9B0EF0E8F884
:1014000080460091DDE90E01D4E926230EF0E0F8D4
:101410002A46019B0DF0F6FD4246009B0EF0FEFAB7
:1014200080460D465A46304639460A9B0EF0D0F8A3
:10143000DDE902230EF0CCF8CDE90001DDE906017B
:10144000D4E920230EF0C4F842462B460EF0F4F9FE
:10145000DDE900230DF0D6FD054688464FF0FF324A
:1014600058460A990FF0D5F84A4653460EF0B0F8A0
:1014700083460091DDE91101D4E92E230EF0A8F88E
:101480002A4643460DF0BEFD5A46009B0EF0C6FAB2
:101490000546884632463B46104619460EF098F8F7
:1014A000DDE902230EF094F8DDE902230EF090F856
:1014B00083460091DDE9060132463B460EF088F88E
:1014C0004A4653460EF084F82A4643460DF09AFDEC
:1014D0005A46009B0EF0A2FA054688464A465346F5
:1014E000304639460EF074F8DDE902230EF070F84C
:1014F00006460F46DDE90601D4E922230EF068F81E
:101500002A4643460EF098F932463B460DF07AFDE6
:10151000074688466FF00102484651460FF079F8B9
:101520004A4653460EF054F806460D46DDE90E01D4
:10153000D4E928230EF04CF83A4643460DF062FDFC
:101540001FB032462B46BDE8F04F0EF067BA30B5FB
:101550000446B0F88C0089B000040690B4F88E0000
:101560000D4600040790B4F89000883400040890F9
:1015700002A80AF081FA029906982B46401A0690B2
:101580000399079806AA401A079004990898401AE8
:1015900008902088616A80B20AF00EF909B030BD67
:1015A0002DE9F04786B00D466946FFF7D0FF0026CB
:1015B00037463446E9466FF00F0A0DF10C0859F82A
:1015C00024000EF0E7FC51460FF051F848F82400D3
:1015D00001460EF06FFD0EF00BFB32463B460DF060
:1015E00011FD641C06460F46032CE8DB0DF024FBBE
:1015F00006460F46002458F824000EF0F9FA324649
:101600003B460DF0BBFD0DF0CBFC55F824100EF061
:101610001BFB45F82400641C032CECDB686D401CAC
:1016200068650AF0C9FBE86706B0BDE8F0872DE9F8
:10163000F04104460AF0BCFA40BB0AF03DFA042827
:1016400024D0FE4920460E46FFF7AAFFFC4DD5E9FF
:101650005C01814205DB304602F055FF0020C5F8F1
:101660007401208E4FF00406C00515D504F1180052
:101670000AF090FA8009B0F5C87F0AD2D5F8B80010
:10168000002850DD401EC5F8B8004AE00120BDE842
:10169000F081C5F8B86044E0D4F8A010D5F8140182
:1016A000081A01D4034600E04342E44A4FF4A02C58
:1016B000583A634505DDD4E929035365C2E913109F
:1016C0002FE00312D4F8A470D5F818015B43381A40
:1016D00001D4864601E0C0F1000EE64505DDD4F8F0
:1016E000A800D164C2E914701BE0001200FB0033B3
:1016F000D4F8A800D5F81C11401A01D4014600E026
:10170000414261450DDC001200FB0030B0F5403F66
:10171000B4DBA034C5F8B86094E80B004C3282E822
:101720000B000020B3E70220B1E72DE9F04F93B0A2
:10173000C34CD0E90023D4F8A81004EBC101C1E9DF
:101740000023D4F8A810491CC4F8A810D0E902233B
:1017500004EBC101C1E90023D4F8A810491CC4F866
:10176000A810D0E9042304EBC100C0E90023D4F899
:10177000A800401CC4F8A800152802DB0020C4F80B
:10178000A8001822AE490CA803F055FE1822AC4957
:1017900004A803F050FE01260DF130090DF1100AE6
:1017A000A346002406EB460808EB04010BEBC10539
:1017B00009EBC407D5E90023D7E900010EF006F8CC
:1017C00003D2D5E90001C7E90001D5E900230AEBFE
:1017D000C407D7E900010DF0BFFE03D2D5E900012F
:1017E000C7E90001641C032CDEDB761C072ED8DB66
:1017F000DDE90401DDE90C230EF010F905460C4685
:10180000DDE90601DDE90E230EF008F92A4623463C
:101810000DF0A2FE02D22846214605E0DDE90601D0
:10182000DDE90E230EF0FAF805460C46DDE9080165
:10183000DDE910230EF0F2F82A4623460DF08CFE67
:1018400004D213B028462146BDE8F08FDDE9080137
:10185000DDE9102313B0BDE8F04F0EF0DFB82DE93D
:10186000F0419CB0064600240E945520CDE90F406F
:101870001190744D0AA80AF0C9F812A90AA80AF032
:1018800097FB16AA0EA912A80AF0ADFB6A460AA990
:1018900016A80AF0A8FB01986B4F00F5967001900E
:1018A000029800F596700290039800F596700390E8
:1018B0003846FEF707FE0EF031FB0199084401900F
:1018C0003846FEF7FFFD0EF029FB0299084402900E
:1018D0003846FEF7F7FD0EF021FB0399084403900C
:1018E000304601A9FEF7B3FED6E930010022574B7E
:1018F0000DF06CFF35D21AAA04A93046FFF720F884
:1019000078B3DFF84C81DDE90801002243460EF090
:1019100085F802460B460DF05BFE06460F46DDE9F4
:101920000601002243460EF079F802460B460DF000
:101930004FFE04460D46DDE90401002243460EF049
:101940006DF802460B460DF043FE22462B460DF085
:1019500059FB32463B460DF055FB0DF06DF9044640
:101960000D461CB020462946BDE8F0410022394B07
:101970000DF004BC10B5E821374803F0F5FD304800
:10198000364920F8BC1F4A0CC280C1818282818303
:1019900042842B48E821E83803F0E6FD284900207E
:1019A000C1F8B40010BD2DE9F04F254F0446C5B075
:1019B000006BC7F8A0012046FFF739FE00287DD153
:1019C000D7F8941107F1BC003D90012911D1B4F969
:1019D0008C004090B4F98E004190B4F99000429090
:1019E00040A91D48FEF733FE04F18C013D9800F03C
:1019F00023FBD7F80801002802DD401EC7F80801C4
:101A000015480022E8381346D0E9305128460DF039
:101A1000DDFE7CD21049E822E839684603F00BFD70
:101A20000D4840A9E838FEF712FE0B493EAA2039BE
:101A3000A1F1C8004391FEF783FF11E0A00B002045
:101A4000800A002000408F40000028410000344000
:101A500000C0724000000840B00800200080FFFF76
:101A6000002866D0FE484399FFF7ACFAD7E9402337
:101A700005460E46E0370DF0D1FFDFF8E4B38046AF
:101A80008946DBE930010022F64B0DF0C7FF024624
:101A90000B46404649460DF071FB0DF0CDF8DBE9F1
:101AA000308B81468A460022EE4B404659460DF067
:101AB000B5FF42465B460DF08BFD00E0C1E080467D
:101AC0008B460122284631460EF0A3FD42465B4676
:101AD0000DF054FB0DF0B0F8B8680EF089F877E817
:101AE00038230DF075FD4A4653460DF035FD03D3FE
:101AF000D7F80801002822DDE8226946D84803F01B
:101B00009AFCD7F8E800E0370EF072F800E00FE03A
:101B100077E838230DF05CFD4A4653460DF01CFD76
:101B20004CD24FF4FA7002F091FF0A20C7F8080176
:101B300044E0E8226946CA4803F07DFC3EE0D7F85D
:101B4000980101283AD1D7F8B400401CC7F8B40076
:101B500000200AF0BBFEDFF808831022D8E932012A
:101B60000EF057FD0DF09EFC3A90D8E9340110229A
:101B70000EF04FFD0DF096FC3B90D8E93601102297
:101B80000EF047FD0DF08EFC3C9003213AA80AF0C0
:101B90002BFED8E930010022B34B0DF017FE0BD21B
:101BA000B24A414613460846FEF7BEFC40464399FA
:101BB000FFF708FA05460E46C7E94056208EC005D5
:101BC00009D5B4F87400C00505D5A948FFF747FE4C
:101BD00005460E4601E0A74E0025A1480022E83048
:101BE000A54BD0E9301C084661460DF0B5FC28D362
:101BF0009F493EAA2039A1F1C8000291FEF7A0FE3C
:101C000000287DD0D4F8AC000DF07BFC02460B46DA
:101C10009A489B490DF0B2FA804689460298FFF730
:101C200084FD82468B4642464B460DF0CFFD09D2DD
:101C30000022944B284631460DF08EFC02D2FFF76D
:101C400099FE8EE142464B46504659460DF084FCC3
:101C50007ED200228C4B284631460DF07DFCF7D217
:101C60007F4E0022E836894BD6E930010DF0AEFDFB
:101C7000EED2DFF8ECB100221346DBE930010DF0C3
:101C8000D5FB72D130460299FFF79CF9B84607F5AB
:101C90008077B14603C7D6F8C060D9F8C47004464F
:101CA0000D4600226F4B304639460DF0B7FE3246E6
:101CB0003B460DF08DFC06460F4601222946204684
:101CC0000EF0A7FC32463B460DF058FA0CF0B4FF7C
:101CD00004460D46D8F8E8000DF08AFFD8E938230D
:101CE0000DF076FC22462B460DF036FCA7D33DAC1A
:101CF000029994E80D00FEF7E3FA02289FD000E075
:101D000030E100289DD1D8F89801012899D1002010
:101D10000AF0DCFD4C461022F4E932010EF079FCA9
:101D20000DF0C0FB3A90D4E9020110220EF071FCD4
:101D30000DF0B8FB3B90D4E9040110220EF069FCD1
:101D40000DF0B0FB3C9003213AA80AF04DFD01E0F4
:101D5000FDE00AE001200AF077FD192003900490CD
:101D6000059003A80AF066FDE8E0B946D7F8B4008C
:101D70000DF0C7FBD6E930230DF000FA444A454B7D
:101D80000DF024FDB2D336480299E830FFF71AF976
:101D9000B246D6F8C060DAF8C47080460D4600221C
:101DA000304B304639460DF039FE32463B460DF099
:101DB0000FFC06460F460122404629460EF029FC3C
:101DC00032463B460DF0DAF90CF036FF06460F4678
:101DD000D9F8E8000DF00CFFD9E938230DF0F8FB35
:101DE00032463B460DF0B8FBCCD33DAE029996E8A7
:101DF0000D00FEF765FA00287ED15F465646D7E90A
:101E00003623D6E93601C836C8370DF007FE02463C
:101E10000B460DF0DDFBD7E9022382468B46D6E95F
:101E200002010DF0FBFD02460B460DF0D1FBCDE9A2
:101E30000001D7E9002376E832010DF0EFFD0246FC
:101E40000B460DF0C5FBDDE900230DF0DBF8524633
:101E50005B460DF0D7F80CF0EFFE07468A461BE014
:101E6000C80700200000F03F00409F406666E63E45
:101E70009809002000000840000034409A99999980
:101E80009999A9410000F83F0000104000003E4031
:101E90000AD7A3703D0AE73FD4F8AC000DF031FB40
:101EA0003A4653460DF094FB6FF01D020EF0B1FB65
:101EB00004460F4600228D4B0DF088FC15D30022FE
:101EC0008B4B204639460DF081FCBFF4B8AED9F8F3
:101ED000B4000DF016FBD6E930230DF04FF94FF0AA
:101EE0003332844B0DF038FBEFD2D9F898014C46D1
:101EF00001287FF4A4AE00E033E000200AF0E6FC05
:101F0000C4E94085F6E9320110220EF082FB0DF0A3
:101F1000C9FA3A90D6E9020110220EF07AFB0DF0D0
:101F2000C1FA3B90D6E9040110220EF072FB0DF0CD
:101F3000B9FA3C9003213AA80AF056FC6E494FF0DA
:101F40007E530022A1F1E800FEF7EEFA77E66A4838
:101F500000226A4BD0E93014084621460DF036FCC9
:101F6000F4D3002045B06FE470B5654C0546D4F855
:101F70000C0110B9284600F08AF8D5F8B01044F6E4
:101F8000206081420ADAD4F8102111448142C4F859
:101F900010114FF0000005DBC4F810012846BDE821
:101FA000704000E570BD04224FF4C871AFF24700E5
:101FB0000AF088BAAFF24F000AF064BD4E4810B57F
:101FC000E821E83803F0D0FAFFF7D4FC4FF4D471DD
:101FD0004B4803F0C9FA4A4C4FF07E50C4F8E80071
:101FE00004F5907004F5887402F0F7F90A20206671
:101FF0004FF08240E0641E20E0664248A0674248FD
:1020000060674248E067002010BD10B5FFF7D6FFBB
:10201000002805D1AFF27100BDE810400AF016BBF0
:1020200010BD10B5AFF2BF000AF02CFDAFF2890071
:10203000BDE810400AF058BD30B50022C2EBC20323
:1020400031F9124030F91350AC420ADD02EB420480
:102050000D8820F8245000EB84044D8865808D881D
:10206000A58000EB430331F91240B3F906309C42DE
:1020700009DA02EB420300EB83030C88DC804C8816
:102080001C818C885C81521C032AD7DB30BD70B563
:102090001B4DD0F8AC200446EAB1D317002019211B
:1020A00002F0A3FF45F8AC0F54F8AC2F0020D31773
:1020B000052102F09AFF686022680020D31796215C
:1020C00002F093FF0DF01DFAC5E90D01AC3D0120B2
:1020D000C5F80C0170BD6FF00040C5F8AC00C5F844
:1020E000B0000B498005C5E93801F0E70000104059
:1020F000000004403333C33FB008002000409F403D
:10210000800A0020CDCCCC3E3333333F9A99193F1F
:10211000FFFFDF4110B5F949C4074FF040434FF0CE
:10212000804205D08B66CB66C1E91C328A67CA67DC
:10213000840709D5C1F80031C1F80431C1E9423240
:10214000C1F81021C1F81421400709D5C1F8983110
:10215000C1F89C31C1E96832C1F8A821C1F8AC21AD
:1021600010BD2DE9F14F82B0002102988A468946C0
:10217000806F00287DD000220020401C0428FCDB5A
:1021800002984FF0000C00EBC203D3E90010A1FB52
:102190000167D3E9065400FB017701FB0077CDE925
:1021A0000067A646AE1B64EB0704AB460327A6FBFD
:1021B000075804FB078406FB0C44DDE90067AD19F2
:1021C0007C41A5FB016704FB017405FB0045D3E9D5
:1021D0000C47341B65EB0705CDE900455D46A5FBC3
:1021E00005670324A6FB04580EFB0B770BFB0E7749
:1021F00007FB048406FB0C44D3E91263761B63EBF4
:1022000004034C18A4FB017C40EB000505FB01C551
:1022100004FB0055A7FB014C05FB01C507FB00555E
:10222000A4FB017C05FB01C504FB0054F6196341C6
:10223000DDE90045AD0045EA9475A400A4FB017CEE
:1022400005FB01C104FB0014F01B73EB040103D573
:102250000023404263EB0101BAEB000479EB010378
:1022600001DA82468946521C032A85DB50464946DC
:1022700000E010E00DF0A9FEA149896B0DF058FDBA
:102280000EF04EF99D4AD2F80C2203B09200BDE840
:10229000F04F02F097BE002003B00146BDE8F08F7A
:1022A0002DE9F14F0020009A0146926FF2B300240D
:1022B0000022521C042AFCDB009A02EBC405AA4649
:1022C000D5E90029A2FB023CD5E906769E46FB1A19
:1022D0000325A3FB057809FB02CC02FB09CB66EBC7
:1022E0000B0606FB05854FF0000C03FB0C5617EBA5
:1022F0000E03A3FB027C46EB0B0606FB02C203FBAC
:102300000923DAE90C25BA1AAB4103D5002552425C
:1023100065EB0303851A71EB030501DA10461946D4
:10232000641C032CC4DB0DF050FE00E00EE0744989
:10233000896B0DF0FDFC0EF0F3F8704AD2F80C2218
:10234000BDE8F84F02EB420202F03CBE002001461D
:10235000BDE8F88F2DE9FE43684D80460024D5F88E
:1023600010626F4605EBC4013246D1E9020102F06A
:1023700016FE05EB8401B1F884100904401847F8F3
:10238000240004F10104032CECDB5C4898210830A4
:1023900003F0EAF80120FFF7BDFE95F8E801019986
:1023A000042807D1D5F81802B0F5201F02DD05205A
:1023B00085F8E801524C0098636AC11A01D40E46B0
:1023C00000E01E1A0198A26A801A01D4074601E0B3
:1023D000019FD71BBE4206DD002901D4084606E056
:1023E0000098181A03E0002801D50198101A029AE3
:1023F000E16A521A01D4134601E0029BCB1A8342D0
:1024000005DB002A01D4104601E00298081AD8F82A
:10241000241009F08EFDD5F81812814206DD032143
:1024200068460AF059FA02200AF0BEFA0098606283
:102430000198A0620298E062BDE8FE83304AC2E9DA
:10244000020170472E4AC2E9060170472C4AC2E9D0
:1024500004017047294AD2F8E0310360D2E97402DE
:10246000C1E900027047254AD2F8E0310360D2E9A1
:102470007602C1E9000270472DE9FE47814600203F
:10248000EA468A6F22B901EB800339F91020DA6736
:1024900001EB800239F91030D46F1D1B4AF820502F
:1024A000136E9D4200DD1566D36E9D4200DAD5663F
:1024B0000123002422464FEAE578A3FB056704FBCD
:1024C000057403FB0844334602EB420601EBC606E3
:1024D00006EBC00CDCE90076FF186641CCE900761B
:1024E000521C042AE9DB401C0328CADB886F401C0D
:1024F00088670120C1F89000BDE8FE87280C002005
:10250000880E002030B5002302EB830550F82340ED
:102510005B1CEC66032BF7DBC2F88810916F79B176
:10252000002102EB810450F82130E56F5B1B00D5E0
:102530005B42256E9D4200DA2366491C0329F0DBCD
:10254000906F401C90670120C2F8900030BD10B51C
:1025500000210B4600EB8102491CD46ED467136640
:102560000329F7DBD0F8881040F8783FC0E905135D
:1025700010BDD0E92210081A70470146D1E91802AF
:10258000824200DB1046896E814200DB08467047BC
:102590002DE9F0478046501E012686408946C2F14B
:1025A0002007404602F00EFD04460D4640464946CF
:1025B0003A4602F0F4FC3A4602F004FDB04203DD74
:1025C000641C45F1000505E07142884202DA641E90
:1025D00045F1FF3520462946BDE8F087F749002040
:1025E000086248628862C862086448648864C86493
:1025F000086348638863C863086548658865C8657B
:10260000704730B5EE4AD2F8483223B1D2E990543F
:102610002D1A8C4101DAC2E990015B1CC2F84832E4
:1026200030BD30B5E64AD2F8583223B1D2E99454DD
:102630002D1A8C4101DAC2E994015B1CC2F85832B0
:1026400030BD30B5DE4AD2F828322BB1D2E9884508
:10265000041B71EB050401DAC2E988015B1CC2F8B6
:10266000283230BD30B5D64AD2F838322BB1D2E953
:102670008C45041B71EB050401DAC2E98C015B1C7B
:10268000C2F8383230BD2DE9F0470246CC4801256A
:1026900008308046C36E016E046FC91A436E1B1B5F
:1026A0008B4200DB1946836ED8F87400181A8842F2
:1026B00000DB0146C14F6037F86B884204DA002422
:1026C00000F00AFA204687E7108E0124BC4EC005B0
:1026D0004FF000010ED5D6F880303068834209DB18
:1026E000B2F87420D20506D5D6F8B021824201DBBB
:1026F000052400E00C4674B3600719D5AF48C8380C
:102700008146FFF72EFD000D40EA01300915C6E9AC
:102710007601D7E904321B1A8A4102DA0025FFF755
:10272000A1FF9821484602F01FFF0420FFF7F2FCAA
:10273000E0070ED04046FFF714FDC6E97C01D7E95B
:1027400006340246181A8C4103DA00251046FFF7BA
:1027500078FF284640E7FFE702203DE71EB5044624
:1027600090F83000C0F38110032804D19449201D53
:102770000831FFF781FE94F87400C0F3811003283C
:1027800005D18E4904F14800C839FFF775FED4F829
:10279000B8008B4AC0F38113A0326946032B0FD0D7
:1027A000C0F3411003281AD1002004EB8003D3F8B2
:1027B000A0309B1341F82030401C0328F5DB09E0D2
:1027C000002004EB4003B3F98C3041F82030401C6A
:1027D0000328F6DB6846D4F8C010FFF793FE1EBD51
:1027E0002DE9F04705460020296BCA0567D501F0A1
:1027F0005001402900D1012095F8741001F05001DA
:10280000402900D1012095F8B8106D4C01F050011D
:10281000402900D030B100F05FF90020C4F8E00199
:1028200084F8E801654ED4F80812E86A60368142FF
:1028300025D0C4F808020A28306B0ADA400020606C
:10284000716B491CC4F80C120DF0A4FB0CF01AFAC1
:1028500004E02060706BC4F80C02B06BC4F8140282
:10286000D4F80C02C0F11000C4F810024FF48040FC
:10287000C4F8180296F8341019208840F0632846EE
:10288000FFF76CFF94F8E811DFF8349105274FF05B
:10289000020809F1A009072911D2DFE801F00411AB
:1028A00027305E7E8500D4F8E001411CC4F8E011B9
:1028B0000A2804DB00F010F9012084F8E80186E022
:1028C000D4F89800012810D12846FFF7DCFE10B19B
:1028D000012803D004E084F8E87101E084F8E8817D
:1028E0004846FFF734FEFFF779FE70E0032084F8D6
:1028F000E8012846FFF72EFD00F0EEF867E02846D5
:10290000FFF7C1FEF0B3012861D1B5F8B8004FF070
:102910000403C00515D54846FFF72FFE0146C01732
:10292000C4E97410D6E902C2BCEB0101824102DAAB
:1029300084F8E87108E04846FFF71BFE316A8842D8
:1029400002D384F8E83124E0F4E97601FFF769FE68
:10295000D4E90601FFF755FE39E0B5F8B800C00527
:102960000BD54846FFF709FE0146C017C4E97410AD
:10297000D6E90232591A824108DB2846FFF783FE66
:1029800000B100E002E0012803D020E084F8E87103
:102990001DE02846FFF7DEFCD6E7062084F8E801B4
:1029A00001200AF001F80DE02846FFF76CFE01282F
:1029B00001D038B10BE084F8E88108E0280E00204F
:1029C000280C002000F088F84846FFF7C0FD0020E2
:1029D00002E610B500214010002802D001F10101EB
:1029E000F9DC454C4FF0010001F1010100FA01F062
:1029F000C4E90C010DF0CEFA0CF044F9A06394F890
:102A0000341019208840E06310BD10B54FF41871E0
:102A10003A4802F0A9FD4021374802F0A5FD072001
:102A2000FFF778FB344840F2DC510022C0E906127F
:102A30001421C0E902124FF41671C0E904123049A2
:102A40002E4C01620120C4F8E4011920FFF7C1FFF8
:102A50000020C4F8080210BD10B54FF418712748C3
:102A600002F082FD0720FFF755FB244801210022D8
:102A7000C0F8E41180F8E8110321012009F086FF75
:102A800007226421AFF2A720BDE8104009F01ABD6B
:102A900010B5012009F088FFAFF2BB20BDE810405F
:102AA00009F0F0BF10B5FFF7B0FF002805D1AFF275
:102AB0005700BDE8104009F0C9BD10BD10B5FFF7C3
:102AC000E7FFAFF26B00BDE810400AF00DB80B490C
:102AD000D1E97C0170477047084810B5982108304B
:102AE00002F042FD9821074802F03EFDBDE810408B
:102AF0000520FFF70FBB0000880E0020280C0020E7
:102B00000008AF2F600D00202DE9FC5F0D46002668
:102B1000416B99469246B046002904DBD0F8BC00D0
:102B2000032800D10126FF492422081F02F0B5FC2A
:102B3000FC4FC03F0024C7F8E05007EB8400D0F8FA
:102B4000BC1040460DF080F8641C80460A2CF4DB73
:102B5000F5490DF0EDF8F54C80464FF0C80BC7F87D
:102B6000E400BAF1320F21DB4846C7F81CB10DF082
:102B700011FA00900190EE4928460DF0D9F801991C
:102B80000DF098FA21460DF0D3F80446BAF57A7F95
:102B900033DBE8492846009C0DF0CAF821460DF0C9
:102BA00089FAE2490DF0C4F8044626E041F2883182
:102BB00099FBF1F04042D7F81C1100EB800040185F
:102BC000C7F81C0102D50020C7F81C0148460DF0CB
:102BD000E1F98246D84928460DF0AAF851460DF091
:102BE00069FA21460DF0A4F80446D7F81C0120B973
:102BF000D7F82801012800D10024D7F8200100B11E
:102C00002C46CE49894500D12C4614F0FF4F11D0F7
:102C10004046C7F8E88041460DF00CFC20F000402B
:102C2000C7490DF013FB22D2D7F8B80010F0FF4FC0
:102C300003D01CE0D7F8E800EDE7C6B14846C7F876
:102C40001CB10CF05EFC04460E4628460CF0D0FF8A
:102C50000022BC4B0CF092FA224633460CF0B8FC32
:102C60000022B94B0CF08AFA0CF09AF9044620467F
:102C7000BDE8FC9F2DE9F04FABB04FF0000AA94F23
:102C8000CDF810A0C03FCDF814A0CDF818A0044690
:102C9000D7F82011022003297DD0002620AD07EBB4
:102CA0008600D0F8A8000DF075F96FF01D010DF049
:102CB000DEFC45F82600761C042EF0DB0FA808F099
:102CC000A5FE24A808F0FEFE964B24AA183B0FA9E7
:102CD0002046279300F0F4F9064604F1180008F0A6
:102CE00059FF82099548D7F83031834200DB03460B
:102CF00031462046FFF708FFBB4607F1B806D7F874
:102D0000EC100DF0D7F930600BA808F07FFE13A986
:102D10000BA809F069FB83480FAA3C300BA90646B3
:102D200009F061F931460BA809F042F900210DF1D3
:102D30003C080DF14C090DF1100E0022134610460F
:102D400001EB410C0CEB000759F8276008EB8007FA
:102D5000401C7F680328C6FB0723F3DB900F40EA83
:102D600083004EF82100491C0329E6DBDBF8200133
:102D70005F4600287DD05046CDF818A040420DF0A7
:102D800009F96FF01D0949460DF071FC06F092FF3C
:102D9000D046564600E074E0CDE9000A0698CDF82A
:102DA00008A040420DF0F6F849460DF060FC0BF02B
:102DB0007FFE0390D7F8300141F2883190FBF1F0AB
:102DC0004FF0804A0DF0E6F82890299006980DF013
:102DD000E1F8DFF878B159460CF0AAFF29990CF018
:102DE000A7FF51460CF0A4FF0DF098F840000690A4
:102DF000DDF8A0A00DF0CEF859460DF05BF9514674
:102E00000DF058F90DF08AF806900DF0C3F8494618
:102E10000DF02DFC06F04EFFCDE907060996069849
:102E20000DF0B8F849460DF022FC0BF041FE0A9077
:102E30001CAA694620A809F02FF96A4607A91CA810
:102E400009F02AF9D4F8BC00EA46002810DD002673
:102E50001E215AF8260045F826000DF008FC0DF05A
:102E60005DF807EB8601761CC1F8A800042EEFDBA5
:102E700000E00BE0D4F8BC004FF0FF3503280AD186
:102E800006E0C7F820012BB0BDE8F08F069875E783
:102E900002F07DF8F0B357F8A80F0DF07BF84E461E
:102EA00049460DF0E4FB1C9078680DF073F831464C
:102EB0000DF0DDFB1D90B8680DF06CF831460DF09B
:102EC000D6FB1E90F8680DF065F831460DF0CFFB8B
:102ED0001F90B86FA83F0028D5D0D7F8B800294672
:102EE000A8370DF0C4FB06F0E5FE1E210DF0BFFB78
:102EF0000DF014F8C7E90008C7F8088029463869BA
:102F00000DF0B5FB0BF0D4FD1E210DF0B0FB0DF064
:102F100005F800E01CE0F860D4F8C010A83F27983E
:102F200044E00000880F00200000204100409C4544
:102F300000004843000048420000C84340420F00E0
:102F40000E2DB23D000079400088B340E1023747C2
:102F50002946D7F8B8000DF08AFB06F0ABFECDE9A4
:102F60000708CDF824802946D7F8B8000DF07FFB7C
:102F70000BF09EFD0A906A4607A920A809F08CF87C
:102F8000684609F059F9002556461E2156F82500D5
:102F90000DF06DFB0CF0C2FF07EB85016D1CC1F855
:102FA000A800042DF1DBD4F8C010279809F052FCDA
:102FB000D7F8200100288FD0401E62E770B590F846
:102FC000B810664ACC064FF000034FF0030101D45D
:102FD000C2E94813B0F82041E40509D4048EE405A1
:102FE00003D5B0F87440E40502D4C2E948131AE0EE
:102FF000D2F8341139B1D0E93013C91A4FF47A73C9
:10300000B1FBF3F105E0D0F8B01044F62064A14222
:1030100002DBC2F830110AE0D2F82C512944C2F880
:103020002C11A14201DA002070BDC2E94B31FFF73B
:1030300021FEF8E710B54FF49C71484802F094FA6D
:10304000464C4FF080400021C4F8FC0044F8A80F23
:103050004248A83009F0FEFB4FF47A7060674FF0E9
:103060007E50606410BD3D49C1F8EC0000207047FF
:103070003A49C1F82801002070473849C1F83401A5
:103080000020704704224FF41671AFF2CF0009F010
:1030900019BAAFF2D70009F0F5BC10B5FFF7CAFFB7
:1030A0002E490020C1F82801C1F83401AFF22B00ED
:1030B000BDE8104009F0CABAAFF2370009F014BDFC
:1030C0002DE9FF470C4625491546074699463C22FF
:1030D0000C31224802F0E1F9204950225831A1F187
:1030E000100002F0DAF91D4E95E8070006F13C03E6
:1030F0001B4D83E807001ECC06F1980080E81E00F7
:10310000D6F82401401CC6F82401062802DD06205A
:10311000C6F82401C0F1060407F1A00818E006EB88
:1031200004116A464846483108F05DFF04EB44004C
:1031300006EB80016A46404608F0EDFA074625F0A6
:10314000004120F000400CF081FF00D23D46641C9D
:10315000062CE4DB04B02846BDE8F087C80E00204A
:10316000002474491FB501461022684602F01EF97A
:10317000F6489DE80E0080E80E00F5499DF80C0029
:1031800081F8B001002004B010BD1FB5EF490EC991
:103190008DE80E00EE49102291F8B0118DF80C1058
:1031A000694602F003F90020EDE72DE9F04F91B0F8
:1031B00000251821684602F0D7F90024182106A836
:1031C00002F0D2F9E249A046C14691F8C0010128B7
:1031D0007ED1D1F8B8B1D1F8B4A10022C2EBC200BF
:1031E00000EB4001DA4800EB810E9EF850000F9092
:1031F000002863D000215EE05EF82130DDE9006741
:103200006D1CD8170E939B197841CDE900300EEB59
:103210008100EDB243690D93DDE9027CDE17DB1915
:1032200046EB0C06CDE90236836ADDE9047CDE1745
:103230000C93DB1946EB0C06CDE90436C06B0E9BF4
:10324000DDE9067C83FB0063360C46EA0346F6198B
:103250004CEB2343CDE906630D9BDDE9087C83FB42
:1032600000634FEA164646EA0346F6194CEB234341
:10327000CDE908630C9BDDE90A7C83FB00634FEA20
:10328000164646EA0346F6194CEB2343CDE90A639A
:1032900080FB00634FEA164646EA034616EB080831
:1032A00049EB23490444584501DA834602E050457E
:1032B00000DD8246491C0F9888429DDC521C052A7D
:1032C0008CDBA348AAEB0B01D0F8BC01814200E0E3
:1032D00053E052DBA5FB0872E01700260F9006FBB7
:1032E000082005FB09000E9084FB0410090C41EA3C
:1032F00000410014CDE90C0106A800EBC601D1E99C
:103300000002A0FB05BC02FB05C2002100FB012C52
:10331000684600EBC601D1E90002A0FB043802FBBD
:1033200004820F9900FB0120190C0CAA41EA004904
:103330004FEA204A92E80B0087EA010283EA00087C
:1033400052EA080212D07A1A63EB0003BBEB0900C1
:103350006CEB0A0C4FEA0C4141EA1041000401F009
:1033600044FE7B4901EB8601C1F8A401761C032EC3
:10337000C2DB7748012180F8B01111B00020BDE810
:10338000F08FF8B5724D0E460446D5E96D01091A65
:10339000052291FBF2F1301A90FBF1F0C0B28DF8EA
:1033A0000000042801D92020F8BDC0EBC00000EBCC
:1033B000400005EB800191F85000052816D0421C12
:1033C00081F850209DF80010C1EBC10101EB4101D3
:1033D00005EB810202EB8001CE63236842F82030C6
:1033E00060684861A06888620020F8BD01F1400370
:1033F000181F1022194602F050F89DF80000102204
:10340000C0EBC00000EB400005EB8000011D02F0A6
:1034100044F89DF800001022C0EBC00000EB400013
:1034200005EB800000F11801143002F036F89DF829
:1034300000001022C0EBC00000EB400005EB800054
:1034400000F12C01283002F028F80420BAE730B54A
:1034500085B0044603A9684608F072FB04A808F08A
:1034600031FC02282BD0D4F8E4000399401A3849E3
:1034700091F8B02112B308B3D1F8A421009C80FBCD
:103480000232150445EA134222440092D1F8A821E1
:10349000019C80FB0232150445EA1342224401924A
:1034A000D1F8AC11029A80FB0110030443EA1140E9
:1034B000104402900321684609F00EFA0CE0606B9C
:1034C000032809D108F04EFB30B168460399FFF795
:1034D00058FF08B9FFF769FE05B0002030BD10B5F0
:1034E0004FF4E2711A4802F03FF819481949C0F840
:1034F000B4114FF4AA01C0F8B8114FF4A021C0F8DC
:10350000BC11012180F8C011002010BD1049C1F884
:10351000B801002070470E49C1F8B401002070477F
:103520000B49C1F8BC010020704758B10849D1F8D7
:10353000A4210260D1F8A8214260D1F8AC118160C9
:10354000002070470520704724207047A4110020F8
:10355000001000200000D8FF20B12D4981F8C001E3
:103560000020704724207047294B93F8B1010028B0
:1035700018D0D3E96D10401A052190FBF1F000201E
:10358000C0EBC00101EB410103EB810191F8502038
:1035900022B1002100E0491C8A42FCDC401C0528C5
:1035A000EEDB00207047082296211A4808F08ABFF7
:1035B000184809F067BA10B5FFF791FF4FF49A73F6
:1035C00010221549154808F0F9FF20B9AFF229007B
:1035D00009F03CF808B1012010BD0D49012081F827
:1035E000B101002010BD10B5094C94F8B1010028BC
:1035F00008D0084809F046FAAFF2550009F074FA0D
:1036000008B1012010BD002084F8B10110BD0000F8
:10361000001000204F3400088B310008653100088D
:103620002DE9F043044699B01D4691460E46806848
:103630000CF0B0FC01460CF03DFD804660680CF0DB
:10364000A9FC01460CF036FD074620680CF0A2FCF0
:1036500001460CF02FFD39460CF0F6FA41460CF00D
:10366000F3FA0BF00FFB074620F000404FF08D41BE
:103670000CF0ECFD7ED230680CF08CFC6FF01D0875
:1036800041460CF0F4FF049070680CF083FC414656
:103690000CF0EDFF0590B0680CF07CFC41460CF09E
:1036A000E6FF0690F0680CF075FC41460CF0DFFF79
:1036B00000260C96079020680CF06CFC39460CF044
:1036C00037FB0D9060680CF065FC39460CF030FB60
:1036D0000E90A0680CF05EFC39460CF029FB0F90B0
:1036E00010AA0CA904A808F0D7FC14A904A808F093
:1036F0006BFC6A4614A910A808F0CEFC0199084694
:103700000CF0D8FC0299044608460CF0D3FC214684
:103710000CF09AFAFE49884201DAFE4C0BE0FE49B1
:10372000884201DAFD4C06E0FD49884202DA4FF09A
:103730007A5400E0FB4C48460CF02CFCFA490CF0A3
:10374000F7FA21460CF0B6FC04460896214602988A
:103750000CF0B0FC09900198214680F000400CF07C
:10376000A9FCCDE90A066A4604A908A808F094FC59
:103770006A4600E025E004A9104608F000FC68460F
:1037800008F011FD1E2100980CF071FF0CF0C6FB33
:1037900028601E2101980CF06AFF0CF0BFFB6860E6
:1037A0001E2102980CF063FF0CF0B8FBA8601E21EC
:1037B00003980CF05CFF0CF0B1FBE86019B0BDE8B9
:1037C000F08396E80F0085E80F00F7E72DE9F05F3A
:1037D00005460C4680680CF0DDFB01460CF06AFCE7
:1037E000074668680CF0D6FB01460CF063FC064601
:1037F00028680CF0CFFB01460CF05CFC31460CF065
:1038000023FA39460CF020FA0BF03CFA4FF07E59BF
:10381000002706464FF08048484505DCC4E900878C
:10382000A760E760BDE8F09FA8680CF0B3FB3146E5
:103830000CF07EFA8246014648460CF0FBFD4FF440
:103840000006B04200DA00204FF0FF310CF00FFF0D
:103850000BF018FA8346494650460CF0F5F9B04291
:1038600000DA00204FF0FF310CF001FF0BF00AFAF4
:10387000824668680CF08EFB01460CF01BFC064685
:1038800028680CF087FB01460CF014FC31460CF064
:10389000DBF90BF0F7F906464845BFDD1E2150461F
:1038A0000CF0E5FE0CF03AFB206068680CF072FB4F
:1038B00031460CF03DFA59460CF0FCFB1E210CF091
:1038C000D6FE0CF02BFB606028680CF063FB3146E1
:1038D0000CF02EFA59460CF0EDFB94490CF0EAFB83
:1038E0000CF01CFBC4E902079CE72DE9F0410546FA
:1038F0000C46C0680CF04EFB01460CF0DBFB80462A
:10390000A8680CF047FB01460CF0D4FB074668683A
:103910000CF040FB01460CF0CDFB064628680CF08D
:1039200039FB01460CF0C6FB31460CF08DF93946E7
:103930000CF08AF941460CF087F9B0F5000F06DA71
:103940004FF08040206000206060A0602DE00BF010
:1039500099F901464FF07E500CF0EAF91E210CF067
:1039600086FE064628680CF015FB31460CF0A2FBDB
:103970000CF0D4FA206068680CF00CFB31460CF0B7
:1039800099FB0CF0CBFA6060A8680CF003FB3146A1
:103990000CF090FB0CF0C2FAA060E8680CF0FAFAA8
:1039A00031460CF087FB0CF0B9FAE060BDE8F0811D
:1039B00070B5044690F8300088B0400676D5A0690E
:1039C000002801DB014600E041424FF4803200262E
:1039D000574D91420BDAE169002900DA49429142E0
:1039E00005DA216A002900DA4942914260DB0028A9
:1039F00000DA40424FF4C80188420BDCE06900283D
:103A000000DA4042884205DC206A002800DA4042A1
:103A1000884201DD032000E00220A863696BA06AF0
:103A2000814219D06863A06A0CF0B4FA41490CF0E5
:103A30007FF91D210CF01BFE0CF0DAF83E4A3F4BDB
:103A40000BF0C6FD08220CF0E4FD00223C4B0BF00D
:103A500095FB0BF027FD28630496296BA06908F0FD
:103A600068FA0590296BE06908F063FA0690296B03
:103A7000206A08F05EFA07906A4604A92C4808F00C
:103A8000B2FA00982A4A80010090019869468001A4
:103A900001900298800102900398800103901046E3
:103AA00008F05BFA22490846FFF71FFF08B070BD17
:103AB000AE63FBE72DE9F0430446D0F820018FB058
:103AC00041067CD51A4DD4F810111E4B2A68891A6C
:103AD000D4F82C215A438A4201DA032100E0022162
:103AE000A963810504F58870804601D51049D4E0AA
:103AF000002104A808F024F80D490C223C3104A848
:103B000001F028FC08BBD4F82801A96D88421BE00D
:103B100017B75139A69BC43B0AD7233C8FC2753DCA
:103B2000CDCC4C3ECDCCCC3E0014CD47000080CE59
:103B3000C411002000247449112D4454FB21094074
:103B40000080664071981C007ED0208807AB80B250
:103B500004AA616A07F030FE09980CF01BFA0146CE
:103B60000CF0A8FA074608980CF014FA01460CF07D
:103B7000A1FA064607980CF00DFA01460CF09AFAE5
:103B800031460CF061F839460CF05EF80BF07AF82B
:103B90000646E8490CF08EFAE7490CF0C9F86FF0D8
:103BA0000F010CF064FD0746D4F828010CF0F2F97F
:103BB00039460CF07FFAE1490CF0BAF800E06EE00B
:103BC0004FF0FF310CF053FD074606F073F88146C5
:103BD00038460AF06DFF07464FF08040864204DA0F
:103BE000A8640020E864286533E01E2148460CF0F4
:103BF0003EFD0CF093F9A86407980CF0CBF98146D0
:103C0000CF4938460CF056FA074649460CF052FAAE
:103C100031460CF08DF80CF081F9E86408980CF04E
:103C2000B9F9014638460CF045FA31460CF080F8F7
:103C30000CF074F9286509980CF0ACF90146384687
:103C40000CF038FA314600E00EE00CF071F80CF0A0
:103C500065F904AB686593E8070005F13C0383E868
:103C60000700D4F82801A8656A46B649404608F01E
:103C7000BAF9B4480AAA14306946044608F0B3F900
:103C80002146404608F094F9AE486A460AA94838E9
:103C900008F0A9F9AB4968464839FFF726FE0FB08E
:103CA0008DE51FB50446A7486946483808F080F9F5
:103CB000A44A6946283A204608F095F9A1491DCC46
:103CC000383981E81D001FBD2DE9F0479D4E04469F
:103CD000483E90F8740006F15C0A06F120080125C0
:103CE00000F05001103692B004F5887904F15C07B9
:103CF000402906D094F8200100F0500040280DD053
:103D00001EE031463846FFF761FDB4F82001C005DA
:103D10000CD55146484608F04BF907E05146484655
:103D200008F046F9B4F87400C00509D5854869461D
:103D3000483808F03DF942466946304608F053F9E4
:103D4000B4F82001C005204602D5FFF7B3FE01E01C
:103D5000FFF72EFE7B4932464839404608F043F9CA
:103D600094F87400400671D5208EB4F820110843F1
:103D7000C00578D50FAA3946304608F014FBD4E9BF
:103D8000172080FB0001C2FB0201626E6D4FC2FB77
:103D90000201483F4FF08042801A71F1020014DBAB
:103DA00004A807F03FFFDDE9042080FB0001C2FB0F
:103DB0000201069AC2FB02014FF08042801A71F1A3
:103DC000020002DB0420B8630BE0B86B042808D0C3
:103DD00041F28832022806D0032804D001283AD0C4
:103DE00009E0002507E0E16E91FBF2F5012D00DA14
:103DF0000125032800D0AD00534800244543109806
:103E000007948002294608F094F808900F982946F4
:103E10004042800208F08DF8CDE909040BAA314632
:103E200007A808F0E0F832460BA9104608F095F80C
:103E300031460846FFF759FD42486946483808F0C0
:103E4000B7F842466946304608F0CDF812B0002077
:103E5000BDE8F08707E0E06E90FBF2F0012800DAA1
:103E600001204500C7E7334619463846E26EFFF7A2
:103E7000D7FBE1E770B50446008EC105D4F82001F8
:103E800007D4B4F87410C90503D4C10501D40020C7
:103E900070BDC0F30120032808D02046FFF714FFAF
:103EA0002848A16B383808F0DBFDF0E704F588718D
:103EB00024482EC9383880E82E00F1E7234808F05E
:103EC000E1BD204810B56C21483801F04DFB1D487C
:103ED0004FF080414838016101600162C163C165F2
:103EE000002010BD1D4810B5082219A1006801F07E
:103EF00031FA08B1322010BD1322BDE81040C821AC
:103F0000124808F0DFBA10B5FFF7DBFF002805D133
:103F1000AFF22F00BDE8104008F098BB10BD10B5FF
:103F20000A4808F0AFFDAFF24300BDE8104008F0CA
:103F3000DBBD0000DB0F494000003443002474491E
:103F4000000080CE0C120020A69BC400753E000825
:103F5000654D504C20352E3100000000C00000207F
:103F600010B5FE4BFE4AFF4C002002EB8001401CC6
:103F7000C0B2CC620B620328F7D310BD70B5F84E07
:103F8000002506EB8504D4F8B410206A0CF05EF826
:103F900002D2D4F8B4002062D4F8B410E06A0CF075
:103FA00055F902D2D4F8B400E0626D1CEDB2032DD5
:103FB000E7D370BD3EB50B46B0F848100904009138
:103FC000B0F84A10009A09040191B0F84C100904A5
:103FD0000291E3494C6E121B0092019A8C6E121BE7
:103FE0000192029AC96E511A0291816EB0F8440092
:103FF0006A4680B207F0E0FB3EBDF0B5D84F002422
:104000002546D7F894208DB02E46012A01D1C7F855
:10401000946009A9FFF7CEFF05A807F053FD0599A5
:1040200009986022A0EBA130099006990A98A0EBAC
:10403000A1300A9007990B98A0EBA130CA490B90C8
:10404000081F01F02AFA0DF1240CC7489CE80E0065
:10405000143080E80E00684607F0E4FDC249602293
:104060006C31081F01F019FABF489DE80E0080303E
:1040700080E80E0000210922D7F82C04401CC7F864
:104080002C0401EB410007EB8000DDF800C0D0F804
:104090004C33491C93FBF2F31C44D0F850330929EC
:1040A00093FBF2F31D44D0F8543393FBF2F31E4418
:1040B000D0F8B83393FBF2F363440093D0F8BC33E9
:1040C000DDF804C093FBF2F363440193D0F8C0031E
:1040D000029B90FBF2F018440290CDDB002C00DA3A
:1040E0006442002D00DA6D42002E00DA764200981C
:1040F000002800DA404200900198002800DA40428F
:1041000001900298002800DA4042029000990020B5
:104110008C4200DA012001998D4200DA401C02999C
:104120008E4200DA401CD7F82C14092900DB401C11
:1041300004280DD197F8240402280BD90146884899
:10414000D7F82824643008F0FDFA012008F0F4FACA
:104150000DB0F0BD08F0DEFAFAE72DE9F047804D2A
:104160000027DFF8088285F82474DFF80492DFF86E
:1041700004A206463C46C5F8287405EB8400E96BAA
:10418000D0F8CC000CF062F818D8D5E91401002260
:1041900053460BF043FC21F0004142464B460BF0E6
:1041A000DBF90BD295F82404401C85F82404012087
:1041B000D5F82814A0400143C5F82814641CE4B2C3
:1041C000032CDAD395F8240480B3002406EBC40052
:1041D000D0E9002110460BF065F905EB8401641C61
:1041E000E4B24866032CF1D3C5F82C74A8680428FF
:1041F00002DA95F82404A86095F82404032815D160
:104200005D49E868884211DCD5E914010022534673
:104210000BF004FC21F0004142464B460BF09CF9A8
:1042200004D2A868032801D10420A8605349286952
:10423000884215DA5249E868884211DCD5E9140150
:10424000002253460BF0EAFB21F000414D4A4E4B51
:104250000BF082F904D2A868042801D10520A860D7
:10426000BDE8F0872DE9F0413D4C0746D4F8A404A1
:10427000012803D000252846BDE8F08143494FF0CE
:104280007E52A1F1E80013460646FCF74DF9344A88
:104290003046503202F5AC71FCF752FB0500EAD013
:1042A0006068401C6060D4E914010BF0FBF8B96E43
:1042B00007F03FFE0BF06EFE6FF00F010CF0D7F928
:1042C0000BF096FCC4E91401D4E96A010BF0EAF89A
:1042D000A065D4E96C010BF0E5F8E065D4E96E0166
:1042E0000BF0E0F82066D4E968010022284B0BF0BF
:1042F0006DFAC0D2274A314613460846FCF714F936
:10430000B9E72DE9F04104460025D4E9030101266F
:1043100002270BF09BFF10D26169E0680BF096FF5B
:104320000BD22564D4E904010BF090FF02D8C4E954
:104330001167A1E7C4E911769EE7D4E903100BF0F9
:1043400085FF2FD2D4E904010BF080FF2AD2266426
:104350006169E0680BF07AFF21D81DE000401CC6BF
:104360003012002000401C46801500209A9999992F
:104370009999B93F0000F03FAE47E13D00007A4314
:10438000BC74933C9CC420B07268913FF813002029
:104390000070A740CDCCCC3EC4E911576CE7C4E90E
:1043A000117569E72764D4E903010BF04FFF02D8C8
:1043B000C4E9115660E7C4E911655DE700221146C2
:1043C000C26440F8212000EB8103491C5A62032992
:1043D000F7DB0121C0E91D12704730B504461420F7
:1043E000A0650A202066002584F870502046FFF75B
:1043F000E5FF656530BD2DE9F04387B06946FFF7FD
:10440000D9FD00252E462C46E8466FF00F0903AF74
:1044100058F824000BF0BEFD49460CF028F947F887
:10442000240001460BF046FE0BF0E2FB2A46334621
:104430000AF0E8FD641C05460E46032CE8DB0AF092
:10444000FBFBDFF8B48505460E460024B94659F853
:1044500024000BF0CDFB2A4633460AF08FFE0AF00B
:104460009FFD08EB8407D7F830140BF0EDFB641CBC
:10447000C7F83004032CEADBD8F88414491CC8F8C8
:1044800084140121C8F8AC1407B0BDE8F0832DE90D
:10449000F04186B0054604AA03A9684607F05CFC13
:1044A000002637463446E84658F8240001460BF00B
:1044B00001FE0BF09DFB32463B460AF0A3FD641C57
:1044C00006460F46032CEFDB0AF0B6FB06460F4606
:1044D000002458F824000BF08BFB32463B460AF0D0
:1044E0004DFE0AF05DFD55F824100BF0ADFB45F8CC
:1044F0002400641C032CECDB686D401C6865012003
:10450000E86706B0B8E62DE9F05F0025DFF8ECA417
:1045100004464FF07E5BA846206D0BF03BFD014644
:1045200054F825000BF004FC04EB85060746B1693E
:10453000514501D381F00041574501D2384601E091
:1045400087F000400BF076FFB7613063D4F83C9001
:10455000594648460BF06EFF716A0BF0ABFD3946C9
:104560000BF072FB49460BF0E3FB7062504501D340
:1045700080F00040F06044F825806D1C032DCBDBFB
:104580002046FFF7BEFEE06CB0F57A7F01DA401CF2
:10459000E06494F87010042603270125206C4FF086
:1045A000050A06290AD2DFE801F0030B142A4E326D
:1045B0006567C4F84C80A56784F87050BDE8F09F2B
:1045C000E06F0128FAD1022084F87000C4F87880E6
:1045D000F4E704EB8009616ED9F80C000BF036FEAD
:1045E00003D884F8706040462AE0A16ED9F80C0028
:1045F0000BF02CFD2ED81BE06567A567DEE704EB0A
:104600008000616EC0680BF021FED7D8E9E704EBAB
:104610008009A16ED9F80C000BF018FD08D9F849F3
:10462000D9F83000884206D9216EE06C8842C5DB9B
:1046300084F87070E0E784F870604046C4F84C80FD
:104640006067A067BAE704EB8000E16EC0680BF01A
:10465000FDFCB3D884F870A0C4F84C80CCE710B54A
:1046600004460BF097FCE7490BF024FDE6490BF0FC
:104670005FFB4FF0FF310BF0FAFF0BF0B9FA05F0DA
:10468000CBFA1E220BF0C5FF0AF00CFFDA49C1E994
:10469000204010BD2DE9F04F91B000250446009553
:1046A00001950295C06E44F62061D34E884206DB28
:1046B000D6F88010884210D0FFF7D1FF0DE0D6F871
:1046C00048231044C6F8480388427DDBE16E8142EE
:1046D00001D0FFF7C4FFC6F84853206BC6F8B004FA
:1046E0002046FFF788FE06F5906003C8814204DB90
:1046F000C648FFF708FFC6F88454D6F8A804012876
:1047000002D12046FFF779FCD6F8A40401285BD13A
:10471000684607F0A5FA029908460BF0CBFC019910
:10472000804608460BF0C6FC0099074608460BF089
:10473000C1FC39460BF088FA41460BF085FA0AF0C5
:10474000A1FA0E21F0600BF092FF0BF0E7FBADF841
:104750001C00AF49A946ADF81E50ADF8205007A87F
:104760000991FDF789FE03A807F0B6FA316F0398A7
:1047700007F0DFFB0546716F049807F0DAFB05448C
:10478000B16F059807F0D5FB0544F16F069807F067
:10479000D0FB05EB000803AF002597E80F0006F1FA
:1047A00070070DF1340A87E80F000DF1280B04EBB8
:1047B0004507A16E37F8480F000407F0BAFB4AF826
:1047C00025000BF0E7FB00E098E06FF00F010BF025
:1047D0004EFF06EB85014861388801044BF825102F
:1047E0006D1CEDB2032DE2D389480AA9E8380746CB
:1047F000FBF72DFFD6F82813306881427EDBD4F812
:10480000E4000BF0C7FB6FF00F010BF030FFD6F8A0
:10481000D810054611F0FF4F06D028460BF00AFECF
:1048200020F00040C6F8DC00C6F8D850B068062872
:1048300011D2DFE800F0030303030A1A7548B063DE
:104840004FF07E50F063C82004E07348B0637348B3
:10485000F06364203064208EC00509980BD4FDF706
:104860001FFD0BF0B2FB68490AE06D48B0636D486C
:10487000F0633220EEE7FDF774FC0BF0A6FB6A490B
:104880000BF056FA30619821099800F06DFED6F8C9
:10489000841041453BDA3069B0F5000F37DBB16B6E
:1048A0000BF0D4FB33D2316C7068884205DA2046B5
:1048B000FFF7D8FC002852D00BE05C49D6F8B000D6
:1048C000884206DB2046FFF7CDFC002847D0C6F81B
:1048D0000490002006EB8001401C4A69C0B2C1F878
:1048E000B4200328F6D3FFF749FB002406EB840528
:1048F000E96A286A0BF09EFD641C00E02EE0E4B239
:10490000C5F8CC00032CF1D34948FFF726FC00245E
:1049100006EB84056969D5F898000BF08BFD641CE3
:1049200020F00040E4B2C5F8A400032CF0D3F6E96F
:1049300029010BF089F9B1680BF086F9F0600020CD
:10494000A43E06EB8001401C4A69C0B2C1F8982021
:104950000328F6D3E821384600F006FE002011B007
:10496000BDE8F08F10B54FF49761234800F0FCFDCF
:10497000214C0A20206040072067FFF7F1FA234806
:10498000FFF72BFD2068C4F880044FF08440C4F882
:104990006C041E20C4F88C042648C4F898042648E9
:1049A000C4F894042548C4F89C041920FEF711F8B3
:1049B000002010BD012240F25231AFF2273007F043
:1049C00081BDAFF22F3008F05DB810B5FFF7CAFF18
:1049D000002805D1AFF22300BDE8104007F036BE35
:1049E00010BD10B5AFF2533008F04CF8AFF23B00F9
:1049F000BDE8104008F078B8301200200000808038
:104A0000CDCC4CBD368D2740002474496016002063
:104A1000E01400200080BB44000096439A99993F1F
:104A2000000070423333B33F0050C347CDCC4C3D00
:104A3000D8130020CDCCCC3ECDCC4C3F3333333FCC
:104A4000014880687047000030120020002803DD14
:104A5000FE490122C1E920020020704710B5B821AB
:104A6000FA4800F081FDF948F949C160F9498160CF
:104A7000F9490160F94941604FF0804141664FF4C6
:104A8000FA61C167F649C0F89C10002010BD2DE9FD
:104A9000F041EE4C0E460746002521680BF0D6FB90
:104AA00011D3384661680BF0D1FA0CD32069012884
:104AB00013D13046E1680BF0C9FB04D33046A1683E
:104AC0000BF0C4FA09D2606F20B9E048A16D18302C
:104AD00007F0C0FE0120C4E91D05D4E91E0188428B
:104AE00004DB606F012800D1E5656567BDE8F081F2
:104AF00070B50C46054606F095FFD44A002110B962
:104B0000D848854202DD1161516102E01069002838
:104B100008D1506920445061B0F5FA7F02DD0120D0
:104B2000C2E9040170BDF0B58DB00D4614460646CD
:104B3000694607F059FC09AA3146284607F053FA9E
:104B40002946304607F034FA0021EC460DF1240ED8
:104B500000231A46184601EB41073D180EEB80066C
:104B60005CF825507668401CC5FB06320328F4DB50
:104B7000980F40EA820044F82100491C0329E7DB32
:104B80000DB0F0BDB1490020C1F88C00704770B580
:104B9000044680680BF0FEF901460BF08BFA0546DF
:104BA00060680BF0F7F901460BF084FA06462068BE
:104BB0000BF0F0F901460BF07DFA31460BF044F8AA
:104BC00029460BF041F80AF05DF8BDE870406FF03F
:104BD0000F010BF04CBD70B50E4600259B4C01211A
:104BE00030B101280CD0C4F8981044F88C5F29E04B
:104BF000C4F8A060C4E92965E4E92415A56070BD86
:104C00003046D4F8A0100BF015FC20F00040D4F88A
:104C10009C100BF01BFA13D254F8945F31466D1CB4
:104C2000256020690BF010F82061943C312DE6DD01
:104C3000022144F8901F8C490BF07AF8A06170BDF6
:104C400044F8905F656070BD2DE9FF4F8BB0002682
:104C50007E4C0546039604960596D4F88800934644
:104C6000374600287ED006F08DFF10B103A806F06D
:104C700059FFD4F88000A146002819DD01204C46D8
:104C8000C9F8840006F07EFF48B103A806F082FF51
:104C90008009B0F5C87F02D2D4F8800004E0D4F8CF
:104CA0008000401BC4F88000002801DCC4F8847038
:104CB00007F082F8002855D000240E9850F8240000
:104CC0000BF068F982465BF824000BF063F96FF093
:104CD0000F0841460BF0CBFC51460BF0EBF9414677
:104CE0000BF0C5FC31460AF0AFFF641C0646032CEE
:104CF000E3DB5846FFF74BFF0146069030460BF0CA
:104D000017F84FF07E58DFF864A1404501DD4046BA
:104D100002E0504500D9504604F0E2F98346D9F844
:104D20008C004E4670B1316806980BF08FF909D2AD
:104D3000716806980BF08AFA04D25946D6F89000AA
:104D4000FFF749FF684606F0A7FF40490C22AC3147
:104D5000684600F0FFFA18B9D6F8980001286CD11F
:104D60003A4800E0C6E09DE80E00AC3080E80E0056
:104D7000009818B9019808B9029858B36846FFF727
:104D800006FF044610F0FF4F57D0DFF8E4902046AE
:104D900049460BF04FFB01460BF08CF909F072FF0E
:104DA0007060494620460AF04FFF01460BF082F939
:104DB00009F068FF306002980BF0ECF86FF00F011B
:104DC0000BF055FC21460AF0B3FF044640451FDDB9
:104DD000444620E02048306020487060D6F89800B3
:104DE000012804D01B48B0601948F06025E0D6F8CF
:104DF0009C80D6F8A840414620460BF01BFBB060D3
:104E0000414620460AF020FFC6F89870F06014E092
:104E1000544500D95446204604F062F9D6F89C1057
:104E20000BF008FBB060204604F05AF9D6F89C104D
:104E30000AF00AFFC6F88C70F060DFF81080F16DA0
:104E400008F1580801BB0120002413E0E8160020F7
:104E50000000B4420000B4C2000070420000F04103
:104E60007B142E3E00401C4600004842000080BFDC
:104E700000002041F06506EB04104146183006F0B2
:104E800007FE641C042CF6DB434907AA0C460C9869
:104E9000FFF749FE21460C9807F08AF803A806F0B0
:104EA00079FE0BF0BFF86FF005010BF0E0FB29462F
:104EB000FFF71EFE59460698FFF7E9FDD6E91E01E9
:104EC000884201DA2844B067706F90B9306E284488
:104ED0003066B0F57A7F0CDD2F4930223C39A1F1E4
:104EE0001000376600F0D9FA2B4841461C3806F00E
:104EF000CFFD706F0FB0BDE8F08F70B588B004467D
:104F000004A806F0DFFDD4E93001451A684606F032
:104F10007DFD064604AB04F1A00269462846FFF772
:104F200093FE07F0A9FC08B0304670BD04224FF490
:104F30009671AFF2390007F0C5BAAFF2410007F041
:104F4000A1BD10B5FFF78AFD00280DD11248002140
:104F50006438C0F88C100121C0F88810AFF233001B
:104F6000BDE8104007F072BB10BD10B5AFF2750080
:104F700007F088FDAFF27D00BDE8104007F082BD6C
:104F8000054901206439C1F88C00002070470248AF
:104F90006438406F704700004C1700207047B2F132
:104FA00020030AD5C2F1200301FA02F120FA03F32B
:104FB00000FA02F041EA0301704700FA03F14FF0F2
:104FC00000007047B2F120030AD5C2F1200320FA95
:104FD00002F001FA03F341FA02F140EA03007047DC
:104FE00041FA03F04FEAE171704710B54C1084EAC2
:104FF000530404D54042C1F1000138BF491E1B4291
:1050000004D55242C3F1000338BF5B1E00F0D7FA4B
:1050100014F0804F04D04042C1F1000138BF491E56
:1050200014F0004F04D05242C3F1000338BF5B1E9E
:1050300010BD00001CB50C46064B7B446946009031
:10504000204600F0FAFD04460020694600F008FE04
:1050500020461CBD230C00000FB4044910B503AA60
:10506000029800F003FE10BC5DF814FB68000020FD
:1050700070B5044685690068C10601D5302600E098
:105080002026C00707D070BDD4E9012130469047E3
:10509000206A401C20626D1EF6D570BD70B50446B6
:1050A00085690078C00707D170BDD4E901212020AF
:1050B0009047206A401C20626D1EF6D570BD00002E
:1050C0002DE9F0410646002410687529314616A5E1
:1050D00010D000F0F6FA002802DA404213A507E0EB
:1050E00031688A0701D512A502E0490704D511A548
:1050F000012401E000F0EEFA00210A2206F1240763
:1051000009E0B0FBF2FCB0FBF2F302FB1C00303014
:1051100078541846491C0028F3D123462A463046C5
:10512000BDE8F04100F008BB000000002D000000C9
:105130002B00000020000000F0B40D460188090596
:1051400002D5214C7C4402E01F4C7C440E340021EB
:1051500000F1240608E002F00F071209E75D42EAB9
:1051600003721B097754491C52EA0307F3D10278F2
:105170000023120704D5702D06D009B10223113483
:105180002246F0BC00F0D8BA01231034F8E770B51D
:1051900004460D462146106800F09CFA0246294656
:1051A0002046BDE870400023C6E7D21D22F0070369
:1051B000D3E90023C0E70368126843F020030360CB
:1051C0000823C3610023B7E735C400002DE9F05F71
:1051D000894604464FF0000ADFF874B1FB44C0F87A
:1051E00020A02046E1688847002874D0252806D0F2
:1051F000D4E901219047206A401C2062F1E7002693
:105200005F462046E16888472028054607DB312DA8
:1052100005D2781910F8200C08B10643F1E7B00761
:1052200001D526F00406C4F81CA00027C4F818A075
:105230002A2D09D0284603F0ABFC38B304EB8708CD
:10524000303DC8F8185019E059F8041B204604EB0B
:1052500087029161E1688847012F054618D1E0690E
:10526000002820DA26F020061DE0D8F8180000EB10
:10527000800005EB40003038C8F818002046E1688F
:105280008847054603F084FC0028EED1012F0AD0A0
:105290002E2D08D12046E16888477F1C0546022F45
:1052A00046F02006C4DBA069002803DA404246F03D
:1052B0000106A061F00701D026F010066C2D0BD07E
:1052C000682D09D04C2D39D06A2D35D0742D35D0AC
:1052D0007A2D33D016E038E0E1682F462046884723
:1052E000B842054609D16C2F26D04FF48060E168A2
:1052F000064320468847054604E06C2F1AD04FF439
:10530000807006430DB3A5F14100192802D820355D
:1053100046F400664A462946204626604E46FAF77D
:1053200041FF80B101280BD0F61D26F0070000F1E7
:10533000080956E74020E4E78020D8E70020D6E7B8
:1053400006F104094DE7284652E7206ABDE8F09FC0
:10535000C5C3000040EA010310B59B070FD1042A22
:105360000DD310C808C9121F9C42F8D020BA19BA30
:10537000884201D9012010BD4FF0FF3010BD1AB195
:10538000D30703D0521C07E0002010BD10F8013BEA
:1053900011F8014B1B1B07D110F8013B11F8014B11
:1053A0001B1B01D1921EF1D1184610BD032A40F2F9
:1053B000308010F0030C00F0158011F8013BBCF1B7
:1053C000020F624498BF11F801CB00F8013B38BFCF
:1053D00011F8013BA2F1040298BF00F801CB38BFDD
:1053E00000F8013B11F0030300F02580083AC0F0FB
:1053F000088051F8043B083A51F804CBA0E80810A3
:10540000F5E7121D5CBF51F8043B40F8043BAFF3D5
:105410000080D20724BF11F8013B11F801CB48BF2F
:1054200011F8012B24BF00F8013B00F801CB48BF65
:1054300000F8012B704710B5203AC0F00B80B1E89E
:105440001850203AA0E81850B1E81850A0E81850B9
:10545000BFF4F5AF5FEA027C24BFB1E81850A0E8C2
:10546000185044BF18C918C0BDE810405FEA827CDC
:1054700024BF51F8043B40F8043B08BF7047D207F3
:1054800028BF31F8023B48BF11F8012B28BF20F894
:10549000023B48BF00F8012B7047431A28BF9A42CD
:1054A0007FF6C9AF104410F0030F11441EBF11F86E
:1054B000013D521E00F8013D10F0030F7FF4F6AFDE
:1054C000103AC0F00A8010B531E91850103A20E9BE
:1054D0001850BFF4F9AFBDE81040530724BF31E9BD
:1054E000081020E9081044BF51F8043D40F8043D7D
:1054F00012F0030F08BF7047D20728BF31F8023DF2
:1055000048BF11F8012C28BF20F8023D48BF00F821
:10551000012C704702F0FF0343EA032242EA0242F1
:1055200000F002B84FF000020429C0F0128010F021
:10553000030C00F01B80CCF1040CBCF1020F18BF6F
:1055400000F8012BA8BF20F8022BA1EB0C0100F002
:105550000DB85FEAC17C24BF00F8012B00F8012BD5
:1055600048BF00F8012B70474FF0000200B513460A
:1055700094469646203922BFA0E80C50A0E80C5073
:10558000B1F12001BFF4F7AF090728BFA0E80C5024
:1055900048BF0CC05DF804EB890028BF40F8042B1D
:1055A00008BF704748BF20F8022B11F0804F18BF8A
:1055B00000F8012B7047704770477047704753EAF7
:1055C000020C00F069802DE9F04B4FF00006002B33
:1055D0001FBFB3FA83F503FA05F424FA05F65E401B
:1055E00012BF1643B2FA82F502FA05F4C5F120059E
:1055F0001EBF22FA05FC44EA0C04203556EA044C8E
:105600004FEA144418BF641C4FF000084FF0000923
:10561000904271EB030C39D3002919BFB1FA81F71D
:1056200001FA07F6B0FA80F700FA07F6C7F120078B
:105630001EBF20FA07FC46EA0C062037B6FBF4FC36
:10564000A7EB0507103F07F01F0BCBF120060CFA64
:105650000BFB2CFA06F644BFB3460026202FA4BF4E
:105660005E464FF0000B5BEA060C08BF4FF0010BE3
:1056700019EB0B09ABFB027C48EB0608C01B06FBD1
:1056800002CC0BFB03CC71EB0C01C1E70B460246CD
:1056900041464846BDE8F08B13B54FF000004FF08F
:1056A0000001AFF30080BDE81C40704710B500F06A
:1056B000C7FB006810BD10B5044600F0C1FB0460D4
:1056C00010BD09684A0501D540B27047C905FCD52F
:1056D00000B2704709684A0501D5C0B27047C905D4
:1056E000FCD580B2704770B50C460546012A05D03E
:1056F0002878800600D5EA69002302E0012305E04E
:105700005B1C934202D2E05C0028F9D1A869E6183C
:10571000C01AA861286A184428622846FFF7A8FC26
:1057200004E0D5E9012114F8010B9047B442F8D305
:105730002846FFF7B3FC70BD2DE9F0470D469946AA
:105740009246044600F124080168880604D5E06901
:1057500021F01001216000E00120A84201DD471B7B
:1057600000E00027A1697A1902EB0900081AA0617C
:105770002078C00602D42046FFF77AFC002608E015
:10578000D4E901211AF806009047206A401C761CD3
:1057900020624E45F4DB2078C0060AD52046FFF78C
:1057A00067FC06E0D4E9012130209047206A401CC4
:1057B0002062381EA7F10107F4DC07E0D4E90121DB
:1057C00018F805009047206A401C2062281EA5F1A9
:1057D0000105F3DC2046FFF761FC2078000602D5C6
:1057E0000220BDE8F0870120FBE711680268006A2B
:1057F000530501D508700AE0D30501D5088006E0FD
:10580000130603D5C217C1E9000200E008600120B9
:10581000704770472DE9FF4F0C461E464FF0FF378B
:105820008BB0D2E90001DDF860800A908A46C1F3AE
:105830000A5505B93D46002108464FF00000BAF16F
:10584000000F00F4400005DA00EB80004FF4400147
:1058500001EA50004FEA9059B9F1010F00DDB94655
:105860000A9850EA4A000ED044F61050A5F2FF35CF
:1058700045432F14B8F1000F1ED07542291E1EDDBE
:10588000C9F100021CE0B8F1010F4FF0000001D097
:10589000302103E0F24305E02154401CB042FBDB21
:1058A00030460022002121540B99C1F80880C1E93B
:1058B00000200FB0BDE8F08FBD1B6D1CDEE74A462F
:1058C00000DA694206A800F0EFFC06AB93E8070097
:1058D00003AB83E8070050460A9900F0F7FD8DE816
:1058E0000700A0F500501F3800900398002D0ADD36
:1058F00042F21F014A460844002303A90390684668
:1059000001F060F809E0A0F500504A461F38002376
:1059100003A90390684601F06AF88DE807000004C7
:10592000000C03D04FF0FF30410800E01046B8F102
:10593000000F03D00022009215461EE0751E05D40C
:1059400000F082FA303262556D1EF9D5B34601225D
:10595000084302D000227F1C04E02078302801D1C7
:1059600000227F1E002A099784D01DE0112D07DA3E
:1059700000F06AFA303262556D1C50EA0102F5D12E
:10598000084302D00098C8B10EE00021681E05E06F
:10599000235C625C63542254401E491C8142F7DB45
:1059A000AB46A81B401E0990002004F80B000B9882
:1059B000099AC0F80880C0E9002B7AE711264FF059
:1059C000000857E72DE9F04F88460446D21D22F023
:1059D000070191B0D1E90001CDE90A0102F0ABFC69
:1059E00002460B98C00F01D02D2007E020688107E8
:1059F00001D52B2002E0202101EAC000032A0990F2
:105A000001D0072A05DB03464146204600F0E0FBB3
:105A10000BE12078800601D5E06900E00620B8F1AE
:105A2000650F814606D0B8F1660F18D0B8F1670F40
:105A300070D131E00020B9F1110F009001DB11238A
:105A400001E009F101030AAA01A90CA8FFF7E2FE8F
:105A5000DDE90C70002609F10105834647E00120CD
:105A60004B4600904FF000470AAA01A90CA8FFF787
:105A7000D1FEDDE90DB00C995D46002610B909F1A3
:105A800001000D18B9EB050003D4C0F1FF3609F190
:105A90000105A5EB09002BE0B9F1010F01DA4FF088
:105AA00001090020B9F1110F0090484601DD1123D2
:105AB00000E003460AAA01A90CA8FFF7ABFEDDE946
:105AC0000C704D4600268346207800070AD4AB456B
:105AD00000DA5D4601A8012D04DD411911F8011C11
